:20000000A03A01207DF9000039FB021039FB021039FB021039FB021039FB021039FB0210CB
:1C00200039FB021039FB021039FB021039FB021039FB021039FB021011FB021002
:20003C003839002068350020B4380020DC350020202700205037002040390020E03700203B
:20005C00C43800207036002044190000A01C0000381D0000BC1C0000AE1C0000D438002066
:20007C008025002084250020882500208C2500209025002094250020982500209C250020CC
:20009C00A0250020E4380020A43500208C3800209C36002026140000B413000098140000A7
:2000BC000A1500007C150000781B0000E41C0000D81C00008239002024390020AC270020A2
:2000DC00FC370020D82600204E3900204F39002010360020A03800208C220020A42500202F
:2000FC00A8120000AA0F00007417000078210020801C00005431002078390020743900204E
:20011C00A8250020AC2500206C390020941800004C380020D4320020EC340020C81600008C
:20013C00F02700205439002064390020641D0000BE1D00004C250020BC2C0020DC280020E9
:20015C00014A031049480310D54903101547031091AE00005D49031081470310A146031014
:20017C009548031045450310254A031021440310ED47031099490310E148031021490310E7
:20019C005553031089520310CD520310655003108D4E031039B30000BDC70000C1E700009A
:2001BC00954F000059510310ED50031019A60000CD4B03102952031011530310A955031032
:2001DC007555031069530310DD5503103555031091B2000021540310855C03100D56031040
:2001FC004D5D0310A9640310B55B03106D570310E5610310095E0310C55803108560031011
:20021C0071610310B16203109963031055630310FD600310B15E031019A00000D55A031050
:20023C00D559031009630310D963031019640310555F0310C56403104D6203107164031056
:20025C008D64031055640310E16403102975031079720310A16B0310F57203109D740310EE
:20027C00797403102D74031061730310FD7303105574031015750310D96C0310FD740310EF
:20029C0065770000E17403103D75031079AA0000F9640310CD6803102D710310C174031065
:2002BC00F56E0310B973031029670310056E0310C56F0310D5C00000A1770310797D031034
:2002DC003D7E031049750310157E0310357D031099760310997C0310257B031071780310FF
:2002FC00B57D0310ED7C0310857E03102D790310B97A0310917B0310B1790310ED7B031035
:20031C00E97D0310617E0310357A0310D57E0310457C0310A57E0310BD7E03100193000042
:20033C00D9800310E97E031049830310898403108D8103107D820310E58403102B8403104B
:20035C00C5830310918703106188031045880310F1850310B18803107D880310C9880310CE
:20037C001D870310A186031001850310E188031099880310F98703109DA40000359C03106F
:20039C00819D0310E99A0310359B0310C19B0310419A0310F18803101D8C0310618F0310EF
:2003BC00F1940310919E0310C19E03103D9E0310699E0310259E0310619D03100D9E031028
:2003DC00819B0310ED93031055990310C9970310D9980310BD950310959C0310C19D03102D
:2003FC00A59E03107D9E0310C9910310EDC40000699C0310DD9D031095900310FD9B0310B7
:20041C00CD990310158E0310019D0310E19C0310219D0310419D0310BD9C0310F59D03107D
:20043C00A19D031055980310E1920310999A0310B99E0310559E0310F91901008D30010042
:20045C0039A20310D72C010069A1031075A20310C59E0310B9A10310F9A1031015A10310EE
:20047C009DA20310F93901001FE20000DDA0000055130100153901009D36000031A90310E5
:20049C00ADA2031061690000B9A8031099A50310798F000039A803106DA90310C5990000CC
:2004BC006DAC031099B1031009AF031059B1031001B103109DA90310F5D000009DC200006D
:2004DC0023090100B1B70000E5520000D5FE000029B5000041590000E9890000958E000054
:2004FC0015980000F1B9031075BA031081BB031001170100A9D5000011F30000399C000075
:20051C00F9140100BDED0000351F010021EE0000C9160100F52701007D2F0100B1F2000056
:20053C0005080100FD1A01001101010039BD0000B932010005DE0000F1090100E93201008A
:20055C0001760500195600004151000099660000E9C60310114A0000998100000D35010089
:20057C00891801007330010071F30000573B0100A7300100F9340100033C0100B1F6000035
:20059C000DCB00002DC7000001000000000000000000000000000000FFFFFFFF9C28002092
:2005BC000400000000000000000000001400000030FD021018000000941D00006406000095
:2005DC00742800200400000000000000000000002400000018FD021018000000F1330100B7
:2005FC00080000005407000018060000C1C8021001BB021091EB0210DDE5021081E0021020
:20061C00B9E5021071E50210310000000100000001000000F41D000000000000FFFFFFFF66
:20063C009428002004000000000000000000000028000000B8FC0210240000001E0000008E
:20065C001800000000000000CC080000780600009BEC021025E2021005EB021025DE02104B
:20067C00FDE10210E1E402102F00000034000000240028000000000080270020FFFFFFFF25
:20069C00BC280020040000000000000000000000380000006CFC021028000000010000005B
:2006BC00100000000000000000000000F7F1021000001A0010000000030000002C1D00009E
:2006DC00CB1C0000080000003600000040270020E025002009001D00631C0100E024002063
:2006FC000100000000001200FFFFFFFFAC28002004000000000000000000000010000000C7
:20071C0048FD0210180000000000000000001300FFFFFFFFC428002004000000000000002F
:20073C000000000054000000A0FB02103C000000000001002D000000A8050000E715010088
:20075C0030000000273B0100540700007C070000DDFA0000D9DB021059EC0210CDD6021063
:20077C0085DE02104DE5021029E5021030000000000016000000000000000000FF7F0000C0
:20079C000C240020FFFFFFFFA428002004000000000000000000000058000000DCFB0210C0
:2007BC003400000039FB021001002F00060000000000000020000000010000001BF8021027
:2007DC0028000000CC080000F407000093EC02106DEB02104DEC021029E00210BDE40210F2
:2007FC0099E402102D000000000000007C2800200400000000000000000000001000000049
:20081C0040FC02102C000000000000000000030000000F003C0000000000000000000000F4
:20083C002FF902101000000008000000F81B0000FFFFFFFFB428002004000000000000003B
:20085C00000000001C000000DCFC021024000000E0070000642800200400000000000000BB
:20087C00000000000C00000000FD0210180000003F210100000000000000000008000000C0
:20089C000100000004000000000000000000140000000000C4170000000019000000180017
:2008BC0024000000333C01000040000000020000A80500000000100055F002100C00000026
:2008DC00E1850000000000005C2800200400000000000000000000002000000010FC0210B0
:2008FC0030000000DC170000010000000D3B010053130100000000000000170000020000EF
:20091C0031000000000023000000150001000000640700008C28002004000000000000000E
:20093C00000000002000000094FC021024000000F417000028280020200000001C1A0000E4
:20095C00CC300020B43400203C280020AC340020B8230020483900201C1200000C390020A4
:20097C004030002058320020683400201C280020D82800205C1D000009080310010103102F
:20099C00890903105D0303100105031089060310D1080310210A0310810B0310810A031001
:2009BC00110B0310510B0310D10A031029100310610D0310890E0310050E0310B50F03101B
:2009DC00D10B0310511003103D10031065100310FD0E0310ED0F0310B50C0310650F031028
:2009FC00111003106910031009120310F5120310AD110310291103105D120310B11203105D
:200A1C0019250310552703108D240310F12603100528031089260310CD2303105928031053
:200A3C00ED1F0310251303100D210310911D0310B12703100D2203109925031019260310DE
:200A5C00A91B0310CF2803109528031039290310052903106D29031099160310C91E0310AE
:200A7C007D1903100D230310C92C03101D2C0310292D0310B52B0310F52C03109D290310A1
:200A9C00CD2A0310452B0310472D0310112D0310412D0310752C031029340310C138031024
:200ABC0071360310A12E03108133031069090100A93A03103D3A0310C5340310113803105C
:200ADC00753A03104D2D031009320310E12F031015390310F939031019310310B13703103C
:200AFC00F5350310B13903105D350310C5320310E5360310693903104D370310253D031002
:200B1C00413D0310F53C0310C93A0310A53C03109D3D0310593D031019430310CD3D0310B8
:200B3C00A14303104D400310093F031061420310CD400310C9430310E5430310C93F03105C
:200B5C0011440310FD4303101F440310A942031019420310E1420310C141031075430310C6
:200B7C0049430310494103101B440310AD0B0310A33B0100A73B0100B33B01004B3A0100A9
:200B9C00B73B0100AF3B0100AB3B0100BF3B0100BB3B0100583900206D400021D7400021CB
:200BBC009940002105410021114100211D410021354100214D410021074C657900F009F85E
:200BDC0061796940490703D50121044A8903116070BD70B5024908478003002108110440F4
:200BFC002D59000000F019F8E1B26C290BD0042801D0062807D110490978C90703D1217835
:200C1C00090700D402200D490A780C21114202D00B4980220A6003B0F0BDF0B583B009499E
:200C3C00084700200849884704480178402291430170064800470000C800002133010021CA
:200C5C0000E200E041160300F7630000231B030000F082F800480047577F000000F082F888
:200C7C00004800471B880000094B1A780824A243002800D022431A70004A1047838E000096
:200C9C0003490878000701D40248004770470000800300215F7E0000044A2820904704480E
:200CBC00012141600348044A416010474F42000000500440006004408542000070B51F4DA3
:200CDC002878C4B21E4880472878032834D1032C32D01C488068400DC2071A480146603118
:200CFC008030002A03D01F240C57458802E01E240C570588002C1FD01348154A41690079AC
:200D1C004143481011494969401810494039497F904740054015694288420DDBA8420BDC3E
:200D3C000C4B996988B20246090C624309045212801880B20843986170BD0000E40200214F
:200D5C0079410000280000218003002100030021CB81000040400440806B0C490007000F46
:200D7C0048717047094A0A4918235079CB56497EC018814201DD084602E00F2800DD0F2069
:200D9C00D189090909010143D1817047E0020021880000210097B92EE5725CCB5DCAE4734E
:200DBC00B82F0196BA2D03945FC8E671E7705EC90295BB2CE3745ACD0691BF28BE29079027
:200DDC005BCCE27559CEE077BC2B05920493BD2AE17658CF51C6E87FB4230D9A0C9BB52207
:200DFC00E97E50C7EB7C52C50E99B720B6210F9853C4EA7DB2250B9C57C0EE79EF7856C1E7
:200E1C000A9DB324089FB126ED7A54C355C2EC7BB027099EA2351B8C47D0FE69FF6846D1C6
:200E3C001A8DA334188FA136FD6A44D345D2FC6BA037198E41D6F86FA4331D8A1C8BA532A6
:200E5C00F96E40D7FB6C42D51E89A730A6311F8843D4FA6DF3644ADD1681AF38AE39178086
:200E7C004BDCF26549DEF067AC3B15821483AD3AF16648DF1087A93EF5624CDB4DDAF46366
:200E9C00A83F1186AA3D13844FD8F661F7604ED91285AB3C00CD2A031000452B0310021F12
:200EBC0044031000FD430310011F44031000FD43031003D10B031000FD43031004511003F5
:200EDC001000FD43031001472D031001412D031001FD43031001FD43031001FD430310008D
:200EFC00752C031001FD43031001FD43031001FD43031001FD43031002472D031002412DD9
:200F1C00031002FD43031000752C031002FD43031002FD43031002FD0E031002FD4303107A
:200F3C00046510031000FD43031003472D031003412D0310031F440310031F44031003FDB6
:200F5C0043031003D10B031003FD43031000752C031003FD43031003FD43031004472D03FC
:200F7C001004412D0310041F440310041F440310041F440310046510031004FD430310046B
:200F9C00FD430310043D10031000752C03100001363601010001020100010301000104014C
:200FBC000606080400000C0100340D01000F10040101140100FF1608000020020000220112
:200FDC0000FF23010001240100FE250100082602000028010001290100012A0200002C01AA
:200FFC00000F2E0200003001000131010008320200FF34010007350102FF36010000370115
:20101C00000138010001390100FF3A01000F3C0200FF3E01010F3F0100014001041F410183
:20103C000001420100FF43010080440800004E0100084F01000F50010001510100FF520195
:20105C00000A5301008954010001580400005C0400006004000064040000680400006C04D3
:20107C0000007004000074040000780400007C040000800100FF8101000182010001830161
:20109C000102840100010203E02800208439002085390020E12800207C390020E22800209B
:2010BC00E3280020053A01000934000011320100F9220100CD220100F9F5000055F60000E3
:2010DC009DBC0000110C01009D250100A51E0100C1000100B93A010021350100DD290100E2
:2010FC002D1A01008927010075220100A1220100611A0100D51E010005D20000559F000044
:20111C0057240100D5F9000051F20000E1390100ED3901000BE600000D2F01007BE6000055
:20113C00C9BA0000BD07010099CB0000951A0100113A01009D2B0100713201000B3C010036
:20115C0035150100FD6700007D2B01003DCD0000750301000308000000000000000000008D
:20117C000001640300000000000000000538000000000000000000000000000000000000AE
:20119C000000000000000000033800000000000000000000820108101400008400000000C5
:2011BC004E90550000000000073800000000000000000000000121030F008000520798E01C
:2011DC000800C810682600206403008005000000043800000000000000000000000188F9BB
:2011FC004E90550000000000FF0710580000FC010000000000000000000000000000000035
:20121C000000000000000000000000000000000000000000000000000000000000000000B2
:20123C00000000000000000000000000000000000000000000000000000000000000000092
:20125C00000000000000000000000000000000000000000000000000000000000000000072
:20127C00000000000000000000000000000000000000000000000000000000000000000052
:20129C00000000000000000000000000360001000600000000000000000F000000000000E6
:2012BC00000000000000000000000300FFFF00000403FFFF0000FFFF0F00E8030005401FB0
:2012DC000310000101000000FF3F0F0008000E0000000000000000000300010F000009015D
:2012FC000000000000000000000000000000000000000000000000000000000000000000D2
:20131C00000000000000000000000000AD0000010000000000000000000000000000000003
:20133C00000000000000000000000000000000000000000000000000000000000000000091
:20135C00000000000000000000000000000000000000000000000000000000000000000071
:20137C00000000000000000000000000000000000000000000000000000000000000000051
:20139C000000000000000000000000000000000000000000000000000101710101010101B9
:2013BC001101010131010101010180010001100161013B0014006301730172016201430191
:2013DC000001130106013D01350004011201000100010001000104010401330133013C0197
:2013FC0044013201360000010001650100013500810100010501820183010001660100018C
:20141C000001080109010A010B0103007100300160001100700031022003500480000700CE
:20143C001000610000001400630073007200620043000000130006000000000004001200EF
:20145C00000000000000000004000400370037003C02440000000000000000006500000013
:20147C003500810000000500000083000000660000000000080009000A000B00030271020E
:20149C00300160021102700201020202020280020002100261023A0041006302730272024B
:2014BC006202430200021302380000020002040212020002000200020002040204023700AF
:2014DC0037003C0244020002390000020002650200023502810200020502820283020002BF
:2014FC00660200020002080209020A020B0201037103010301030103010301032203020380
:20151C00010300031003000300030003000300030003000342030003240306030003000302
:20153C0004031203250323032503230304030403000300030003440300030003230300034A
:20155C00650321003503810300030503000300030003000325032303080309030A030B0393
:20157C000304710402046004110470040204020401040204000410046104000414046304C9
:20159C007304720462044304000413040604000400040404120400040004000400045104E5
:2015BC006400000400040004440400040004000400046504000435048104640005040004AB
:2015DC0083040004660400040004080409040A040B0401043F30010009340100DDC8000064
:2015FC00210E01001D2A0100D5BD000029DC0000572901003D2A0100B5200100E3200100FD
:20161C005D120100CD1B0100213101002DF40000F90101002DEC000089F40000DBFD021066
:20163C001928010011DC021069C900005D3901007D230100393601004D360100ED2F0100D2
:20165C0071310000ED7A000000000000000000000000000051310100C135010051E00000BA
:20167C0085350100453B01003F3B0100D535010000000000E53A0100DDDF0000E1E30000EC
:20169C00812E01000DC60000C3360100B5940000054400005DCF00001D2B010000000000AA
:2016BC0075F800002D2E010071B6000000000200000002000200020000000300040001000E
:2016DC000000020000000000000000000500010000000700060001000000030007000800C6
:2016FC00000000000F0001000100FF00100008000000000018000800000000002200020062
:20171C00000000008F0000008F0001008F0002008F000300900000018F00010190000002B7
:20173C00900000038F0001048F0000058F0008048F0000048A000006510000007F00010043
:20175C003F0004003F0002003F0001007F0002008F0002048F00010238C40D00C800000030
:20177C008100000032000F0100C50D00900100004000000096000501952B0D00C8000000B6
:20179C002200000032000F02000000000000000000000000000000000000000000000000C8
:2017BC0000000000000000007B7374617469632D696E7374616E63652D6E616D657D00C07D
:2017DC007B656D7074792D696E7374616E63652D6E616D657D00C0467B756E6B6E6F776EE5
:2017FC002D696E7374616E63652D6E616D657D0069F700001FF9021045F8021059F80210C4
:20181C006DF8021081F8021095F8021031D90000C51F010061110100FF1B010085280100E0
:20183C00613601005D2C010019180100D7380100D93301000DE60000D134010009370100E1
:20185C00E5380100F9360100CD3A01001B3B0100153B01000000000000000000000000006E
:20187C00000000000000000000000000000000009138010083380100C0030000800700007C
:20189C00000F0000001E0000003C00000078000000F0000000E0010000C003000080070030
:2018BC0000000F0000001E0000003C00000078000000F0000000F0001404C0A0FE000000D5
:2018DC001404C0A00A0480A0090480A008400080FE00000003048080024000800604808080
:2018FC00070480800D2000800E200080FE0000000001040000333333333333333333333332
:20191C0033333333330301464854657374000000000000000000000000000000000000007A
:20193C0000000000000000000000000002000000020000000A000000020000000200010078
:20195C00000000000000000000000000000000000000000000000000000000000E0000005D
:20197C00DD3A0100333B0100F51C0100A12D010031FD0000BD2D010031D70000BD0A0100FA
:20199C0045390100BD73000025D50000F5EC0000ED3A0100D1630000817200004B3B0100CB
:2019BC00DD02010041910000513B010059C4000054070000E4190000F937010009380100E4
:2019DC00293801001938010055200100CD280100D52301003200000000B00040140000009C
:2019FC0034000000FF000000000000000302FFFF30370020200000000103000000000000EA
:201A1C0015F9021001E602102DDA021045E7021041D10210C9D30210A5DF02102DE40210AF
:201A3C0061EA0210A111010000000000FFFFFFFFFFFFFFFF0000000000000000010101017E
:201A5C0000C201000300000000000000CC0800007C1A00001F3C0100B1CC000039E1000047
:201A7C00F51F0100A9280100A92301002E0000000000000000000000000000000000000068
:201A9C0000000000000000000000000000000000FFFFFFFF0000000000000000000000002E
:201ABC003A013A010000000000000000000000000000000000000000000000000000000094
:201ADC0000000000000000000000000000000000681A00006C2800200400000000000000B0
:201AFC000000000020000000901B000018000000CC19000084280020040000000000000032
:201B1C0000000000140000002C1B00001C0000001C0000000000000000000000401B0000BB
:201B3C000000000008000000000000000100000040420F00010000000000000000000000EE
:201B5C000000000000000000000005800000068000000780000000000000000000000500D2
:201B7C00BD00B700B100BC001C003000380008003801020018000000000000000000000089
:201B9C00A01B00000800000000000000E0270020D02700200400000004000000FFFFFFFF24
:201BBC0000000000059D0000593001000101010000000000020000000000000000000000D8
:201BDC00FFFFFFFF00000000000000000600000002000000860000008200000001000000DC
:201BFC0000000000000000000000010000000100001610160E18151C021203241858030284
:201C1C0010025801000100010203000100010001020001020200000000000000FFFFFFFF30
:201C3C000000000078330020A2100000A0330020A310000005000000D0070000C8000000C1
:201C5C00FF000000882F0020C21D0000E42F0020C41D00000000000020000000400000003F
:201C7C006000000088B22400881300001000000000000001000080800000808400208084B6
:201C9C000040808400A6AAACA4A9A9A399B19ABCB6A8313118191A22311C1E203131343130
:201CBC00313117191A21241B1D1F31313331FF00FF00000000000000000100000C0E020BD4
:201CDC00040B0A070800110F000120181A18182C34041E007C19000070390020841D00009C
:201CFC00FF0001000000000000000000A4190000002B0020F4190000000000800020008093
:201D1C000040008000000080000400800008008025DD021031C8021075DF021002040201CD
:201D3C00010101090200000000BE040A00BE02080102000302000103FFFFFFFFFFFFFFFFE1
:201D5C003545251502030504000408100004081034380020CA1C0000E803000000006400AC
:201D7C00FF00000000000000002005000040000000000000080000000000000000000000DB
:201D9C0010040810181C10000810182004040810181C000001020304070005000000646138
:201DBC00746100010509000101010000000000001000000001000000693B0100233C01000A
:1C1DDC005F0D01006F3B010059040100A5DB00001B3C01000A0000003931010028
:201DF800F0B50446BC480768ADF1440D002F00F0B1812078401E122800F2AC81DFE810F013
:201E18006E0157013D01280120010901F600E800C800B700920067005D004C00AA01340073
:201E380026001C0013007B6C002B00F093810020A21C014698478DE1F86B002800F08A8127
:201E5800684621460AF0CAFDF96B81E1386C002800F080816846002101220BF0D9FE607875
:201E78008DF80000396C73E1F86A002800F07281684600210E220BF0CBFEA11C684611F030
:201E9800A3F9A67BA1890022ADF80A1006B101228DF80C20F96A5CE1B86B002800F05A8121
:201EB8006846002102220BF0B3FEA6788DF8016060788DF80000B96B4AE1786B002800F0C0
:201ED8004981684621460AF089FD796B40E1386B08B36846002114220BF09AFEA6788DF8ED
:201EF8000160A5680195A389ADF8083060788DF80000A27B8DF80A20E17B8DF80B10267CF6
:201F18008DF80C6094F911508DF80D5063690493396B684688476068002800F01B8110F0E8
:201F380081FD17E1B86A002800F014816846002124220BF06DFE6078A11C8DF800000DF1B1
:201F5800020011F041F904F10C0103A811F03CF9267EE08A04F119018DF818600B22ADF85D
:201F780016000DF1190009F029FFB96AF0E0786A002800F0EF806846002102220BF048FE6B
:201F9800A6788DF8016060788DF80000796ADFE0386A002800F0DE806846002112220BF010
:201FB80037FE6688607825796379ADF80260E11D8DF800000B228DF80450A6798DF805302B
:201FD8000DF107008DF8066009F0F8FE396ABFE0F869002800F0BE806846002101220BF024
:201FF80017FE60788DF80000F969B1E0B86910B120460DF0B7FFA07820B9A069002800F057
:20201800A98003E0A069002800F0A4800EF0FCFEA0E07869002800F09D80684600211322C5
:202038000BF0F6FD6D46A01C0168406829600B22686004F10A0102A809F0C0FE796987E0F2
:202058003869002800F08680204609F017F881E0F86800287ED0684600210E220BF0D8FD35
:202078006078A11C8DF800000DF1020011F0ACF8A089ADF80C00F9686AE0B868002869D083
:202098006846002114220BF0C3FDA01C01686D46296040686860A07A0B2204F10B018DF8CA
:2020B80008000DF1090009F089FEB96850E0786800284FD06846002110220BF0A9FD607887
:2020D8006688211D8DF800000B22ADF8026001A809F074FE79683BE0242500203868C8B36F
:2020F8006846002119220BF093FDA01C01686D46296040686860A67A0622002102A80BF054
:2021180087FD700824BF01208DF80800B00824BF01208DF80900F00824BF01208DF80A0045
:20213800300924BF01208DF80B00F00924BF01208DF80C0036F07F001CBF01208DF80D00F9
:2021580004F10B010B220DF10E0009F037FE39686846884711B0F0BD2DE9F041D04CD14DF2
:20217800DFF84883A088ADF1400D4108C0F0828008A804A90DF000F801286AD10120474633
:20219800607007F128000068D8B14769CFB1072002268DF808000022ADF80A600BABADF8AE
:2021B8000C2002AE009396E803000C23B84740B9BDF82C0060860C9F67630D98A06310F00C
:2021D80073FF022605AFBDF81210BDF8100084F82C603A46A1840DF021FD30460CF01EFCA9
:2021F800BDF820009DF81C60A5F8600009A985F8626005F1700011F04EFCBDF8220005F175
:2022180066063946A5F86E00304611F044FCBDF81200B5F86010A5F86400502011F017FB91
:20223800B5F86E10532011F012FB4A20314611F09AFC95F86210E12011F010FBB5F8641035
:202258004B2011F004FB05F10A00102111F0FCF80AE00026667011F00FFEE06101200CF083
:20227800DDFB304611F058F8201D012111F0D6F820468088410B13D3E18804F1D40011F0A6
:202298007FFA002104F1D4004FF49672E1800BF0BFFC201D4FF4805111F0C0F820468088E9
:2022B80081080FD3804800680421049004A811F067FA606B0FF08AFD201D022111F0AEF84C
:2022D80020468088C00905D30EF05EFD201D402111F0A4F86F89780805D305F10A000121D1
:2022F80011F09CF86F89B80805D305F10A00022111F094F86F89780916D342200EA911F075
:20231800B7FD95F87A0005F10A06032818BF042803D1D5F880000FF041FD0FF055FA304694
:20233800102111F07BF86F89B80907D30BF0BEFE05F10A00202111F071F86F89F80907D318
:2023580008F078FA05F10A00402111F067F86F89780A0AD395F87D0010F0DEFF05F10A00FC
:202378004FF4807111F05AF86F89380946D395F87C0005F10A06002838D0401E34D0401E6D
:2023980002D0401E2ED034E095F87810472011F065FA95F87910542011F060FAB5F8641001
:2023B8004B2011F054FAB5F86010502011F04FFA09278DF8117001238DF812308DF813308B
:2023D80095F862008DF8100004A811F04DFD95F87A0001280DD1E87858B13046202111F03B
:2023F80033F806E0032002E0022000E001200CF03DFD3046082111F011F86F89454617B162
:20241800A86811F02DFDE988686A4A0823D3A96B6F78814208BF012F0ED0E96B814213D150
:2024380017B110F07FFB0FE0201D012111F00CF8A86811F015FD07E011F05AFA032818BF8E
:20245800042801D10EF0A0FC002068620121A81D10F0E4FFE988880804D3A81D022110F058
:20247800DDFFE988C80805D310F05CFBA81D042110F0D4FFA08880B90D4C60684FF0FF314A
:2024980055F0A6F848B120780CF0C4FF041C04D0FFF7A6FC204610F0C5FA10B0BDE8F0816A
:2024B800B017002080200020BA1D00005C1E0020182500202DE9F04FCB4C60692589216A21
:2024D800A689806DADF1240D2A468919083109F075FC7619B0B26669B16D4919C34DB165DE
:2024F8002968D1F8D41091F88370216A0B1808331B780DF11E021370DFF8F882022F00F17A
:20251800010080B208D141180A7A66694346591C0A70216A401C80B20A180832126802A9D9
:20253800001D0A6080B2A081042102A810F09AFB0290034611F06AF8F063184610F0BEFC9C
:20255800A6F84000EA200FF065FAA9484FF0020B022F80F800B00BD168684069007838B1D1
:202578004146087810B94878FF2801D00420E0706769E078397C084338749DF91E0011F0BE
:2025980036FB87F8460007F17406BE6539899DF91E007B6887F84800B7F85C004FF0000826
:2025B800401AC01801467860B88987F84780820A18D2020926D310F0070F07D000F00700CD
:2025D800032812BF081C7868401C17E07968C87800F00702401000F0380000EB4200401879
:2025F800001D0BE02868D0F80813384688476769786E10B1B7F8680090B178687861B88932
:20261800000918D297F8600020B32868D0F80C13384688476769F86CE0B1B7F85000C8B9E4
:202638002868D0F8541204F114008847404660610CF0C0F9D4E02868D0F8B41438468847CF
:20265800787067697E78B86978651EB1F2200FF0E1F967692E68D6F8B8100878002800F068
:20267800B780BA89DFF890A1089202F00702022A68D16378002B65D17B78002B62D161696F
:202698008DF81F800DF11600283110F0D3FF616928314F6803A847600E8906810A680260A1
:2026B800574607F110022B681088401C1080D3F8B8006169436A486E0DF11F020421984771
:2026D80004F1140938B92868006C006818B19DF81F1080F86810666996F83000022813D163
:2026F8002868D9F80030D0F8D4705A4607F1200103F1280010F084F830B907F116010DF1DE
:20271800160010F097FF66693C480078862809D1BAF81200401CAAF81200B08900F0100095
:202738000DF0F6FB2968B8310A68107830B1976C27B16069394688472968B831D1F89C115C
:20275800484648E02E4A1378002B3AD0089AC2F30132022A35D1787800287FF469AF696843
:202778009DF81E00896853460870E6786769988A002E07F1280207F11C0C00F101009882C0
:202798000CBF414608212E68D6F8B8000378FBB11C4B404618600091CDF804C0D6F8D40042
:2027B800117AD6F87863C38C0D20B04710B90DF031F901E010F0C8FB2E68D6F8B8106769CA
:2027D800087828B1896C19B1384688472E686769D6F85812384688474046606110F0ECFB63
:2027F80009B0BDE8F08FC046C8360020140100207E390020FC2600209026002083390020C0
:2028180080390020A02700202DE9FE4F0090C54F01913868DFF814A3DFF81483C54D029205
:202838004030D0F89410DFF8109391F88320BE499B46012A00F09F807A68D2680123002478
:20285800137056460C70036834701E6816B9D0F80C05804702984FF0E24616EA0B0604EAC1
:20287800000008BF002869D10299A24608201AEA0B0600EA010008BF002858D0464696F93A
:202898000000401E3070B5F8D60042F20146864202D0311D81420DD1484600680199826C1D
:2028B8000098904730B10088B5F8D61042F60142824226D1B5F86600A04EB0F5105F12D068
:2028D80042F60601814237D17068B0F1FF3F1CBF401C70603089401C80B230817189814263
:2028F800B8BF708139E0A96F48460C3001600FF013F93068B0F1FF3F1CBF401C30603481FE
:202918002EE0361D8E4214BFE1201C2009F0A4FA98F9000028B198F90000002800F3FD8034
:20293800ECE03868D0F8582421462046F0E0464696F90000401E30701D200FE0464696F9D2
:2029580000003D68401E3070286C006840680078800902D20FF02AFE02E0E92009F07CFAC2
:2029780098F90000002800F0CE8098F90000002800F3D380C2E07A68D268012313700024C0
:202998000C7001680E6816B9D0F80C058047484600680199826C009890476949029ADFF843
:2029B800A4910B8814EA0B064FF0020606EA020108BF002931D121464FF0E246114016EADD
:2029D8000B0608BF002919D14FF486012026114016EA0B0608BF00290AD1002876D00088C1
:2029F80040F60301814271D01D2009F035FA6DE0019900985B4655F019F867E0464696F944
:202A180000004D46401E30702878862802D00FF0CDFD5BE00EF0F8FA58E0464696F9001096
:202A3800DFF824C15246491E317043F20841994214700AD0B5F87E2001F1020E9E4504D067
:202A5800914202D07146914212D178B1008843F6030181420AD006F0F5FA96F90000002825
:202A780051D096F90000002857DC47E0B5F87E20B5F8F61043F60400884230D090422ED037
:202A980098422CD0B5F84E2040F60900904226D0B1F5505F05D0080B16D31D2009F0DCF9F5
:202AB80012E02A4800684E4600F5C070CCF814003078862802D00FF02FF805E0019900983C
:202AD800029A5B460DF070FC10F0AEFB464696F90000C0B196F9000000281EDC0EE01C4800
:202AF8000078022816D0032814D006F0ABFA96F9000040B196F9000000280EDC3868D0F803
:202B18004C05804709E03868D0F8582420460146904702E0204609F09FF97868C0680470DF
:202B3800BDE8FE8F1401002004280020032800200C280020B019002060230020183900202E
:202B58004A1A002083390020582300202801002191260020C5482DE9F04F3CC8ADF1240D0C
:202B780069463CC11DC881E81D00C14CC14D04F11007009405F1540001978146029005F13A
:202B9800340003958046049005F17C008346059005F1180006900AF07FFDB74E824600211F
:202BB8003022B460B54CF76004F58A7007460BF02FF8BAF10E0F16BFBAF11A0F30222822D0
:202BD8003846494609F0FAF894F8201194F82A6101273846182260F3C71167F3C71684F853
:202BF800201104F1340084F82A61294609F0E6F894F840001822294667F3C71084F84000B4
:202C180004F14C0009F0DAF894F8580004F1F4052022414667F3C71084F85800284609F089
:202C3800CDF894F800110020804668F3030184F8001194F8001167F3C71184F8001194F860
:202C5800021167F3C30184F80211102684F80361A4F8040194F8070120F00F0040F00400FE
:202C780084F8070194F807013022594667F3C71084F8070104F5A27009F0A0F894F8500105
:202C980067F3C71084F8500194F852017C4B7E4967F3C30084F8520194F8520167F3C710B5
:202CB80084F8520194F8530168F3000084F8530194F8530167F3410084F8530194F85301F7
:202CD80067F3C30084F8530194F8530168F3041084F8530194F8530167F3451084F8530171
:202CF80094F8530167F3861084F8530194F8530168F3C71084F853011868D0F80001C089A8
:202D1800A4F85C0194F85E0166F3050084F85E0194F85F016FF0030220F0F80040F058009E
:202D380084F85F01574B84F8622194F8630104F17C0B04261C2266F3030084F86301584650
:202D5800C4F8643109F03AF8C4F8805094F888004D4920F00F0040F0030084F8880094F8C7
:202D7800880067F3C71084F8880094F88900032565F3030084F8890094F88C0067F300006F
:202D980084F88C0094F88C0067F3C30084F88C0094F88C0067F3041084F88C004FF4207A6B
:202DB800A4F890A06FF0520984F88D9094F8920065F3030084F8920094F893004FF4FA53A6
:202DD8001C2266F3030084F8930004F19800C4F8943008F0F3FFC4F89CB094F8A40020F0F3
:202DF8000F0040F0020084F8A40094F8A40067F3C71084F8A40094F8A50065F3030084F8D1
:202E1800A50094F8A80067F3000084F8A80094F8A80067F3C30084F8A80094F8A80067F340
:202E3800041084F8A800A4F8ACA084F8A99094F8AE0065F3030084F8AE0094F8AE0068F351
:202E5800071084F8AE0094F8AF004FF4FA5366F3030084F8AF000849C4F8B03007980861D2
:202E780005F098FF09B0BDE8F08FC0468C1A00001822002070110000A0240020B01900207D
:202E98001401002000C42264881100002DE9F043071CADF1240D00F05481FE6B002E00F07B
:202EB8005081B7F84030002B00F04B81307817F130054FF0000603D097F83810052902D04F
:202ED800002E00F03E81A14CA11CDFF87C920D78401E00F0AA80801E00F09180DFF8708209
:202EF800C01E60D0001F1BD0801F40F02A81012B40F0278110F0FCFC032804D010F0F8FC39
:202F1800042840F01E81112504204F468DF8205003228DF8210008AB8DF82200243769E0F1
:202F3800002D00F00E816846314604220AF070FEB7F84000B9F884202378032840F001815E
:202F5800F86B401C10F028FD521C92B24946012BA1F8842009D00A89831A022B05DBB1F80C
:202F78008620D218521EA1F8862026704446A778088140080CD2012F00F0E3800120A07058
:202F9800606B0FF0BAFC606B64210EF08CFCD8E0002F00F0D680606BA6700FF0AEFC606B41
:202FB8000EF0ADF9CDE0012B40F0CB8010F0A0FC032804D010F09CFC042840F0C2804446A6
:202FD8000725A178606B8DF81C5041B90121A1700FF093FC606B64210EF065FC05E0A67073
:202FF8000FF08BFC606B0EF08AF9A07802228DF81D0007AB2846394605F0E0FDA1E0012BEB
:2030180040F09F8010F074FC032804D010F070FC042840F09680B9F86400042501228DF816
:203038001C50401CA9F86400E3E7684631460C220AF0EEFDB7F840000B285BD1FC6B14F8E8
:20305800010B89F83000204610F0A6FCA41C0346204610F0EEF90546201D10F0EAF980460C
:20307800387A4C4689F82C00022806D0396804F1240001607A68426001E03888A0841809C2
:203098002CBF0820301C590928BF40F010006086834218BF0226B5F57A7FADF8020016D353
:2030B8002C48A84213D3656310F0D6FE814610F0D3FE00EB092910F0CFFE00EB0920B0FBD7
:2030D800F5F16943401A0A300EF080FE00E00226606BB8F57A7F019008D342F21070404518
:2030F80004D3C4F838800FF0DFFF00E00226A06B029001E04C46012602258DF80160684696
:203118008DF800500DF0BEFA03AE0DF10D009DF80110357010F03AFCBDF8021010F036FCD7
:2031380001990EF037FA02990EF034FA39460D222846334605F042FDB4F86A00401CA4F810
:203158006A0009B0BDE8F083B0170020802000205C1E0020407E05002DE9F04FDFF84C920E
:2031780004460D460020ADF1440D01461F460D9016460E9183460F91D9F808A0CDF840B0B0
:203198000AF08AFA262803D00AF086FA252825D1308843F6070181420ED040F60201814225
:2031B80006D0B0F5C15F19D1F07B022816DD43E0F07B022812DD3FE096F8240002280DDD5E
:2031D800307C0F2838D13169C1F31421B1F5803F04D00F2830D1B1F5A02F2DD1002D2BD05C
:2031F80056B328784FF0010808FA00F01AEA000F22D03046594610F0E2FC65606C4DA66058
:20321800A86980B110A800900DA90EAA0FAB304605F060FB0E980B214FF6FF7250230FF024
:203238004DF9FF2808D010F0C2FC82462878022804DB504653F0F8FA5C46B2E000286DD19D
:2032580002F04AFF5B495C4E086840F00200086009A8C9F8006010F09BFA584E584970782D
:2032780009AA0B9005F1DC000CF0D4FD554905F58C7009AA0CF0CEFD09A810F059FA1921FD
:2032980009AB3078504A0A9005F15C000DF09CFF4E4A05F178001A2109AB0DF095FF4C4981
:2032B8005A4605F5AA7013460DF02DFD49495A4605F5CC7013460DF026FD47480068C0F337
:2032D800814030B1454A05F1300004215B460FF01DF9B078012802D10E2007F009FB05F161
:2032F8009C0010F0F3F805F1940010F0EFF8594685F82C1085F82010072085F84002A962C8
:20331800A960374B197085F82D100526E960354A2E6104206A620FF0F5F9287805EB800157
:20333800401CC1F8B440C0B22870504653F07CFA1FB901A810F01AF901AF38684FF4FA767C
:20335800E6602060B86941466062388A6175E082F869E062786800280CBF40F6C41059460C
:2033780020612148E06120622175A061F86800B1E061786900B12062B86800B1A061C822CF
:2033980004F1300059460AF043FC04F1480059460EF0F6FE15495A4604F1B00013460DF051
:2033B800B2FC204611B0BDE8F08FC046CC210840A812002000200940110000E0FC1C000075
:2033D800693101006D9B000041F50000FDE800009D2A0100492E0100B44F0050450201003C
:2033F800D3320020E58A0000E7860000393B01002DE9F84F07469A4D9A4C28684030D0F800
:203418009410267891F883B026B1D0F80C0580472868403001680E6816B9D0F80C058047D1
:20343800A1460120904C89F80000012F677040F2AF80DFF83882DFF838A2BF1E54D07F1EC7
:203458003CD07F1E00F0C0807F1E21D07F1E40F0B6802968096C096891F86D20628191F8F1
:203478006E70002F06BFE070071CE7706868406856460178307810FB01F0784381004046A5
:20349800C16690F8701021F00F0141F0030156E0BBF1010F40F0AA802968D1F8D420096C80
:2034B80009680020C98A6071C90934BF92F8251092F84E10A17010F0B3F997E00026BBF1CD
:2034D800010F66710DD12968D1F8D40090F85300D1F83C148847C07B022802D1304608F078
:2034F80069F80DF0F1FD81E062482F680668D7F8D40090F88300012824D09AF80000870074
:20351800F06B8047DAF804103C23401AB0FBF7F1B1FBF3F25A43891A227812FB03F0401A7A
:203538003C301FFA80FAF06B804707FB0A014046C16690F8701021F00F0141F0020180F8C3
:20355800701053E09AF800008700F06B8047DAF804103C23401AB0FBF7F1B1FBF3F25A4305
:20357800891A227812FB03F0401A3C301FFA80FAF06B804707FB0A014046C0F8FC1090F89C
:20359800001121F00F0141F0020180F800112DE0002029686071D1F8D400096C0968C98ABF
:2035B800C90934BF90F8251090F84E10A170B7B9C078A0B10229C4BF0220A0700FE0286822
:2035D800D0F84C05804711E02868006C006890F86910617190F86A00A0700027A77100F09A
:2035F80089F92868006C0068002836D02248007898B92868403001680F682FB9D0F80C05CB
:2036180080472868006C07687A686178107800F0200020719078E07100E06178032903D06B
:20363800022918BF062918D110F0C1FA617802290CD01249097811B91149097831B1022137
:2036580089F8001053F0F0F8BDE8F88F832189F8001053F0E9F80AF09FF9BDE8F88FC0464D
:20367800140100208339002090260020B01900204026002060230020D23200207E3900203E
:20369800803900202DE9FE4F8B46054610F08FFA904C012D029000F0E08020460068D0F8AF
:2036B80038038047002800F0D3800CF087F9002800F0CE8021464968DFF830A28969DAF81E
:2036D80008000F783C30002F40F0C280824C0068257880476168E268AF00401AB0FBF7F6E8
:2036F800A06890460027B946114646454B4673EB090301DA884206D839464A4686428A41AC
:2037180040DA024600E039461046EB172A46801BB9410FF0E9FD0646754800680F46C18A7D
:2037380000694018643080464FF00001B6EB080677EB09077042B94124DA10F0D3F8024638
:203758004B46394630460AF01DFF0F4606464FF000017042B94115DA0FF065FC0546206905
:203778000FF0D6FF10B1206910F00DFA28460FF03FFE2069314610F002FA206910F001FAE2
:20379800002000E0012055490870884698F8000000285DD14F480068D0F89400007800272C
:2037B80039460BF037FA00B10127381C4DD149480068D0F8D400474E90F883707068806995
:2037D8000078002841D1DAF80800454C436C606902216A4698479DF80000002835D0BBF11C
:2037F800010F4FF0010921D03E4EDAF80820606996F9001011F1020F06D0926B96F90010F4
:203818009047DAF808206069374D95F9001011F1020F06D0926B95F900109047DAF808207F
:2038380060696FF001012970317002E0DAF80820606928494968896981F80090D169884741
:20385800012F04BF00208AF80000002088F80000029852F0E9FFBDE8FE8F2068D0F8940041
:20387800007801210BF0D6F9029852F0DDFF606880690078012811D10FF074F960B160689B
:2038980080690178012909D10021BBF1010F017004D00FF0EDFC01E007F0CEFF0FF062F9A1
:2038B800B0B960680C30C1680978022909D101680F7837B12068D0F84C058047241D2068CB
:2038D8000C3001680F781FB9C16808780228FCD0BDE8FE8F14010020402600208139002066
:2038F800A0240020002800200128002058230020B42400202DE9F84F8C4E4FF000088C4C52
:2039180030688DF80080D0F8D400A57890F883B010F0C6F84FF0010A4FF6FF710AFA05F2C6
:203938008918014030686181D0F8B800824D077847B3826B32B342F21A00694690477D48E0
:2039580067790378C3B1BFB99DF80030A3B13068D0F8B800C06D78B180472978071C0AD01C
:203978007068406863890078083010FB01F0B7FBF0F15818608167799DF80010608907FBC3
:20399800010060816078002840F0B3806B483768016807F1D4000268DFF8A49192F88320A0
:2039B800012A33D0D0F888018047A1782A78002800F09B803368A9F8E280D3F8D43093F8C3
:2039D800314089F8E44093F8243089F8E53099F8E63043F0200389F8E63099F8E630504376
:2039F800800023F01F0343F0020389F8E63099F8E630C9F8F00068F3871389F8E63089F8C6
:203A1800E78089F8E81089F8E98074E0C86B804704460AF093FE07462878810007FB0143ED
:203A38004C4604F1A40210784FF0020C6CF3030010707068C4F8A030406894F80021007859
:203A580068F30302083080B201FB003194F8883084F80021604660F3030384F888303068AB
:203A7800C4F88410D430016891F8831001293CD1D0F888018047C0B36868D4F88410884299
:203A980033D294F8A400042368F3030084F8A4002A787568C4F8A08012FB03F001B2686856
:203AB80094F888300078083080B2414323F00F0040F0030084F888004FF4FA55C4F8841009
:203AD80094F88C00A4F89A8040F0080084F88C0094F88C00C4F894506AF3041084F88C008F
:203AF80007FB02F00EF028FC05E01C2008F0B4F901E002F013FDBBF1020F14D13068006C49
:203B1800006880B10F481149007848B90E48007830B983220846027009F03EFFBDE8F88F4C
:203B3800022208460270BDE8F88FC0461401002090260020D23200204026002060230020FF
:203B5800B01900207E39002080390020833900202DE9F04F904DA868416EADF12C0D02A866
:203B78008847A8468D4C8E4DA178606902290FD170B1002007F07CF8D8F8080041686069D9
:203B98008847281D0068806901210170002060614FF0010A002684F802A0002805964DD1C5
:203BB80009F07AFD002837D009F076FD012833D009F072FD05282FD009F06EFD0C282BD08F
:203BD80009F06AFD0D2827D009F066FD0B2823D009F062FD0E281FD009F05EFD17281BD0C4
:203BF80009F05AFD192817D009F056FD1A2813D009F052FD1B280FD009F04EFD1C280BD0F7
:203C180009F04AFD142807D009F046FD152803D02868D0F84C058047D8F8080000F1200193
:203C380030B92868D0F84C058047D8F808102031096804F1200088475148E0630EF086FD28
:203C58002968D1F8D40090F85300D1F83C14884707462868D0F8D40090F942000BF0ECFA36
:203C7800B0F1FF3F05D0010828BF4FF6FF704549088038897968DFF810913B6832464FF446
:203C98007A7BA9F81661401EC9F81821414303EB5100B0FBFBF0A9F8340199F821016AF368
:203CB800030089F8210199F820016AF3C71089F820012868D0F8C4038047F8B9B88933496A
:203CD8006F68BBFBF0F0C0B208707968BBFBF0F008702868D0F8D40090F85300022806D07F
:203CF8000DF07EFE032809D105215C2001E00221A820274A11706968096808706769D8F874
:203D18000860A168DFF88CB03FB3002006F0B0FF2A68D8F808106069D2F8D420637892F8EA
:203D380053200F4693420AD0496888476868806980F800A0D8F80800A16806680EE0022143
:203D580000228DE806003F6D09F58A76002302AA3146B847C8F80C6008E0366809F58A790C
:203D780004F1200358464A46B04760612868D0F8D40090F853000BB06070BDE8F08FC04671
:203D980054F10080DE1A0020B01900204026002090260020B82D002058230020A024002065
:203DB800140100202DE9F04F7A4CA068416EADF12C0D02A88847DFF8E0A1DFF8E0B19AF941
:203DD800000038B1594691F90000002818BF002040F0DC800FF0EBFEDFF8C4910A9099F8CF
:203DF8000000800806D27D20002106F067FC0025079001E00025079502958DF80C500595C4
:203E180003208DF81800DFF89C81C8F87C51A8F8765198F88F7198F88011634B012665F304
:203E3800030166F3000788F8801198F8801188F88F7166F3C71188F8801198F88F1166F389
:203E5800410188F88F1198F88F1165F3820188F88F1198F88F1165F3C30188F88F1198F8C1
:203E78008F1165F3041188F88F1198F88F1160F3461188F88F111868D0F8282408F5C87139
:203E9800F4209047494807789FB94846A768007880090FD3F86B8047C8F87C0198F88011AF
:203EB80021F00F0141F0020188F880118DF80C600290A7683F4A3E484FF080738DE80C0030
:203ED8003F6D3D4B006808F5BA79494602AAB8470028608006D5022041F288310AF030FFAA
:203EF8002E464FE0594691F90000344F401C087097F90000401C38709AF90000C4F80C9008
:203F18002946401C8AF8000002200AF019FF264F26483968057001F1AC021068077807B1C0
:203F38008025B4F84C0017684FF67F7303401D432843A4F84C0098F88C21387860F3C71207
:203F580088F88C21D1F8D400C28CA4F85A20428D00F14403A4F858201A6804F14F052A60AB
:203F780058686860D1F8D400C18CA8F8A611418D00F14407A8F8A4113A6808F5CE7422609E
:203F9800786860600A9852F04FFC30460BB0BDE8F08FC046582300200E2800200D28002099
:203FB8007F390020B01900201401002005280020B424002020004300457A05000C28002033
:203FD8002DE9F04F824C4FF0FF0A00254FF0100BADF1240D84F834A004F1300984F832A044
:203FF80065E00C2015FB0096E068690306AA04230FF02EFD06F116079DF818009DF819303E
:2040180038700698F375C0F38541032903D09621B1EB106F38D1C0F30140F8703878FF2854
:2040380030D0FE282ED07E282CD007A80DF0A4F9E06869034FF088524FF400530FF008FDF2
:2040580064484FF4005650F8041D361FB6B2B1F1FF3F06F1885201D1032EF4D810684FF0A6
:204078000108414600F0FF03FF2B18BF8846491C000A0529F6DB106007980FF039F84644A0
:20409800FE8001E0A7F806B038787C280BD0782809D0702804D0FE2808BF84F8325004E071
:2040B80084F8345001E084F833506D1CEDB2E078A84296DC94F83310FF2920D194F8342064
:2040D800FF2A15D194F832200025FF2A18D0521C92FBF0F14143521A91B28A0002EBC1025C
:2040F8004A44978B002F08BF84F832A003D00A4684F833200225214691F8331000E0012562
:20411800FF2910D1002684F83360304606F03AF86178084360707E2130460DF0C7FD21467A
:20413800E07891F8331094F83220FF2A14D1491C91FBF0F24243891AC8B284F8320006F03E
:2041580021F861780843607094F83200FE210DF0ADFD204690F8331084F8311094F83320E9
:2041780010462F46810001EBC0014944898BA570781EE18602D0401E23D025E0172923D917
:204198001046C91F01AA89B207F0F6FB9DF80F00C00816D300200090BDF81220E18E94F814
:2041B80033000323891AC91F01AA89B204F012FB50B9BDF8101039B19DF814000BF0EAFFC7
:2041D80002E0002003F0F6FB09B0BDE8F08FC046F8220020002000112DE9F04F744C734FBC
:2041F800E06807F5A271ADF12C0D814207D1714890F90000002818BF002040F0D4800FF0FA
:20421800D6FC0025DFF8D4810A90D8F80000A7F84651D0F8B8000078002807BF4FF4860A0A
:20423800AB4670A090E8000CA068416E02A888470320614E8DF8180030780595800807D29F
:204258007D20294606F03AFA8DF81850079000E00795C7F84C51594B97F85001584AC7F8CF
:20427800643165F3030087F85001E3685069B44607F1340607F134019E420CD0B7F844203A
:20429800B0F840309A4206D1B7F84220C38F9A4208BF514914D0504EFD864A4BBE630122BD
:2042B8001A7097F8412022F00F0242F0020287F84120FD6397F8402065F3030287F84020A8
:2042D800DFF8049199F800700E4617BBD8F80010D1F8B8100F781FB99CF80010890918D342
:2042F8003A490F7837F07F0713D139490F7887B9A068C06B8047B060307B012720F00F00C6
:2043180040F002003073B0688DF80C702C4B02905869A1680F6D2F4B02AA8DE8000C31462A
:20433800B8470028608009D50A9852F07DFA022041F288310AF004FD284634E01D49284FBD
:2043580091F90000244E401C087097F90000E6602946401C387002200AF0F2FCD8F8000052
:20437800AC3001680F7889F8005007B18025B4F84C10806A4FF67F720A4015432943A4F859
:204398004C10C18CA4F85A10418D00F14407A4F85810396804F14F063160786870600A987A
:2043B80052F042FA01200BB0BDE8F08FB0190020582300200D2800207F39002000C422646C
:2043D800A0240020042800200528002083390020AB340020457A0500F41A00201401002046
:2043F8000C28002000004F8C200000012DE9FE4F9B461546894682460FF0D9FB7B490190F7
:2044180008680CAF504508BF48687B4C6FF0010828B1B0300FF07CF9002840F0D6800EF045
:204438005FF9061C00F0DB8004F5CC700FF0ABFB0023B4F9B000C6F80C90401C86F83230AF
:204458006FF31F30A4F8B000C6F808B0B4F8B00030866748C6F810A097E80C0020210027AF
:20447800B8461940104006F1180383E80300424686F8332006F1200383E88001E8683064BA
:20449800287C86F8440028687063287986F83800A868F0636869B064A869F064287F86F812
:2044B8005000687F86F851002F7C27B9EF6817B1012086F844002F795FB999F80C0000F004
:2044D8000F00022805D1012086F83800D9F808007063484608274568002D18BF002F70D154
:2044F80000886FF30900B0F5305F18BF022506D196F83300082540F0100086F8330006F1D2
:20451800180090E80C00414606F1180745EA0200194387E80300D4F8D400824507D194F880
:20453800D800410824BF00F0FE0084F8D80031480768002F39D004F19C000090D4F8A4105C
:20455800D4F8A82004F194052B463046B84710F1030F10D0B6F93010B4F9B020914207D032
:20457800B4F9B01001F6FF716FF31F31A4F8B01010F1020F1BD010F1030F18D096F8330088
:20459800B6F9308040F0800086F8330000278AF8F4702868864205D0F068007B00F00F0037
:2045B80002281CD10AF094F819E06FF00200B4F9B010804601F6FF716FF31F31A4F8B01044
:2045D80005E07F1E2846FFB285E76FF0020894F8D80040F0040084F8D800C4F8D4A0019898
:2045F80052F022F94046BDE8FE8FC0465C130020FFEFFF9F44280020A81200202DE9F047BA
:204618000646F08917468946ADF1280DC01D80B205460AF027F87A4CFF280BD1284603F021
:20463800C9F9854204DD641C207800B90520E3E0012000E000206178D9B917B1022F18D1D1
:20465800B8B1307A8DF80C00F788ADF80A70B588ADF8085000230093E18E94F8330001AA37
:20467800032304F0B7F89DF814003074BDF81070B78194F83310E58EE06806AA0423884670
:2046980049030FF0E5F9069800F0FF0100F0FF007E2806D140467C210DF008FB069901F02C
:2046B800FF017C2940F0A580F08942F20102C11D8FB2E9198A4240F39A80F188327AC1F325
:2046D80001238DF81D10B18843EA82038DF81C308A1006468DF81E200423C0F3851201F025
:2046F800030142EA81128DF81F2010FB03F1F21D01F0FC01731990B28DF820101FFA83FA06
:204718000D282BDB4846314600220FF009F90246052107A80FF004F99DF82010334600F0D7
:204738003F064A4641EAA011B0008DF8201040F0020096268DF8210029468DF822604046BB
:204758000BF0ECFE0646514607AA0723404666700BF0E4FE304360704DD135E004F12400D6
:204778004946324607F02AFB07A90A68301900F12409484609790260731D0171002204F1EA
:20479800240099B20FF0CCF89DF82010962300F03F068DF8223041EAA011B0008DF8201004
:2047B8003B4640F0020007AE49468DF821003268B0790A60B288887140468A8004F1240239
:2047D80029460BF0ABFE6070E18EED194FEA8806AAB2C919E18606EBC8010919A1F84C201C
:2047F80048B1404651460BF0D5FC607803E0052000E001206070C0B20AB0BDE8F087C046C0
:20481800F82200202DE9F04F8246ADF11C0D01F063FC6948007808F03FFF684C002615289C
:204838000DDC152814D0012821D90C381FD0401E24D0401E01280BD9401F09D012E01738CA
:2048580015D0801E1AD0401E18BFB0F1020009D10EF036FC022807D00EF032FC012803D0C8
:204878000EF02EFC21680DE005211F2608E00EF027FC0228F6D101210E4601E00321072675
:20489800204601604E4AD068C0F38150012804D112680120120E904006430EF049FEDFF8F7
:2048B80028B1DFF82081FF2240185B46401E471CC8F800007F1E03F8012BFBD1DAF8002072
:2048D800002702F0FF03FE2B1CD0D4463B46012502F0FF04FF2C0ED0A04205D3A14203D859
:2048F80005FA04F4264201D0022062E002F0FF0227430BF802305CF8042F5B1C02F0FF0487
:20491800FE2CE7D1092005F0F3FF3048C0F800A02F4801210DF034FC364C00254FF0010907
:20493800A84609FA05F0064214D1074207BF05F0FF0141F4C0411BF805005AF8201025480B
:2049580003F0A8FCE8B24FF0FF310EF07BF8C4F8008001E0042020601A4800686D1C241DD9
:204978008542DED904A80EF0E3FE1B4C20781C4A05901A48102104AB0CF026FC68460EF010
:2049980007FF6068184902901648CDF80C806A460BF040FA154951F80D0C20F4F85040F45A
:2049B800005041F80D0C124AC1F8FF9F4046C2F8009007B0BDE8F08FAA3400205028002049
:2049D800A84F00504C280020103700205039002028330020007FC7677C1D0000A837002014
:2049F800D92D01002C350020010B01000D3009402C000940DC3100202DE9F04F754C064680
:204A1800A068D0F80001807AADF15C0DC00007F059FF00280C9008BF1A2400F0D6804FF04F
:204A3800010AF07D8DF848A006F118018DF849000A680DF14A073A604A687A60097A397286
:204A58000FF0B5F81590A068D0F888240DF1460181209047B07D00283DD004208DF803A006
:204A78004FF000088DF80400B78A8DF80280A568ADF80070D5F894246946D22090474FF6A2
:204A9800FF79C34645461DE0C00043F800B0B18AC0188180DCF80020D42008A9904702E0E4
:204AB8004846ADF804008DF80780B08A8DF806803B68ADF80000D3F894246946D120904714
:204AD8006D1CADB204F108073A6802F580721068C088A84236DCB08A00279DF84920ADF887
:204AF80038000DF14A018DF83A700DF13B0007F065F9A068D0F894248DF844A00EA9D020C8
:204B18009047071C18D1B08A31461022ADF808000DF10A0007F052F93069A7680790D7F8B2
:204B3800942402A9D3209047071C02D10C9838B104E00C9820B101E00C9808B10CF064F9BD
:204B5800FCB23FE0ADF80250B08AADF80000D2F888236946D12090470028A1D1BDF804005B
:204B780081459DD0ADF82000A068D0F8882408A9D420904704F1080718B10C9808B30346B8
:204B98001CE0386804F108073B6800F2944CD3F8000190F80AE00C9B404601E0401CC0B2CE
:204BB800864507DD03EBC0018988894502D0B28A8A42F3D186457FF467AF13B118460CF090
:204BD80023F91924159851F02FFE204617B0BDE8F08FC0460C0100202DE9F04F724C00278B
:204BF80004F19400ADF1140DB946B846056802978246CDF80C903DB3D4F8A800B84203D1F7
:204C1800D4F8A400B8421DD0D4F8A4600EB3D4F8A4102869096988421BD195F83300400952
:204C380017D3D4F8A860A6B90127D4F8A400C06840880028F9D0D4F8A400C068408801283D
:204C5800F3D006E0012704E004F1DC0002210EF0C4FF002D43D087F0010B03A802AA594619
:204C780008F02CF95FEA000809D0012F07D0039929B104F5AA700EF0C6FB4D462FE0002DB7
:204C98002DD04A48066856B3B8F1000F27D0039828BBCDF800B002980190D4F8A400D4F8ED
:204CB800A8100AF108035246B047401E02D0401E08D014E0029800B9284601214B46009130
:204CD800014605E001230093D4F8A400D4F8A4100069B1F930104A4602F000FC60E0002FA9
:204CF8005ED0002D5CD060682969884252D1B8F1000F0BD0039848B1D4F8A40030B9D4F882
:204D1800A80018B908200CF037FE49E008200EF0B9F895F8330004F1DC06C0F3001028B96E
:204D380050460DF0FBFDC4F8A40004E050460DF0F5FDC4F8A800A8691D49C0430860A869B0
:204D58004A6810434860E869C04341F8080CE86951F8042C104341F8040CEC68082029469C
:204D78000DF0D0FC20460DF0A9FC2088A0F6020040B141F21E01401A04D041F6E671401AB1
:204D9800012803D8012021460DF0BCFC4FF08041304603E004F1DC004FF480610EF01DFF52
:204DB80005B0BDE8F08FC046A812002048280020101004402DE9F04F684D804605F1080060
:204DD8000068416EADF14C0D02A8884768490A68D432106890F883906648DFF874B10778CF
:204DF800002F00F0A6806448077837F07F0740F0A08056480778002F40F09B80BBF81600CE
:204E1800544CB9F1010F00F10100ABF816000AD000200590E06694F8703060F303030120FA
:204E380084F8703019E0C4F8FC8094F8000120F00F0040F0030084F8000194F800310120D3
:204E580060F3C71384F800310027C4F8F87094F8013160F3030384F8013149683E4BC968E5
:204E780018700F781FB9D2F8842300219047B9F1010F01D10CF01CFE0EF099FEA84604F1B0
:204E980064071290DFF8D8A0D8F80810F87BB9F1010F11D00025A4F86650294605F00EFCC3
:204EB8000790D8F80800066D5246294608208DE80300106802AA15E0496E0AA8884704F10B
:204ED800F4070025388A0D95294605F0F7FB0F90D8F80800066D5246294602208DE8030055
:204EF80010680AAA1F4B3946B0471F495A460880118B002813D4154883211C4F017097F9E6
:204F18000000B9F1010F00F10100387014BF6434F434C8F80C40129851F086FC12E0491CC2
:204F380088B22F461083134912980F7051F07CFC06E010495A460027108B0F70401C1083CA
:204F58000EF002F813B0BDE8F08FC046AB34002090260020B01900200328002058230020B0
:204F7800B424002029AB0000982700200C280020140100208039002083390020F8B5694CCE
:204F98002168054614310868407F002800F0C880D1F8C000B5F84220C08C904240F0C0802B
:204FB800D1F8581305F128008847002800F0B880206840690026467721687031486E90F8EC
:204FD800290028B16068816A0220884721687031086890F82B0018B16068816A012088475A
:204FF800287C400908D36068816A102088472068D0F82813802088476068C16B2020884722
:205018002168C868D1F8FC14103088476868226841785269007800EB0120C0F303215176E7
:2050380022685269C0F3003797762268526900F00F03C0F3031793772068D0F8D40080F862
:205058002C7022680C32D2F8C81091F84F000F2806D093689B7F984202DD6B68DF780FB195
:205078009068807F4873106880F83060D2F8C800417B0F290BD19068C07E022850D1D2F839
:20509800580180472068D0F86C018047F8BDD2F800252846904723680C339868C07E022839
:2050B80015D1D3F8F014186888472268D2F8D4001169467BD06831F81630D2F8F0244FF4A9
:2050D800707707FA06F1C91A904723680C33D3F8C8002A89D3F8A83190F82C1002209847A6
:2050F800206800F11401D1F8C020D0F8D400527B90F82C0082420FD00868D1F8E81488479D
:205118002268D2F87C015169886050694169D2F8F024904721681431D1F81413102088472F
:20513800F8BDC046140100202DE9F04FDFF898910646A9F1080000F108078068D0F8000173
:20515800807AADF12C0DC00007F0BCFB0028089008BF1A2500F0B4800EF029FD00244FF087
:20517800FF0B25460A9027E0ADF800608DF80240D2F88823D02069469047D8B99DF80C0018
:20519800012802D19DF80B1019B998B99DF8071081B1002814BF082304230DF103005B1E83
:2051B80000F801BBFBD105703868D0F894246946D0209047641CE4B23A6802F58072106833
:2051D800C07AA042D0DC4C462068D0F80001C0884FF6FF78AA461DE0089901EBC0018A88BB
:2051F80096421CBF401CC0B261D1C1F800A0A1F804803A68D42004A9904702E07F1CBFB266
:2052180025E020682268D0F800016D1CEDB202F58072C088A842D8BF55464BDDADF80060F4
:20523800ADF80250D2F88823D120694690470028E7D1BDF804008045E3D0ADF81000206825
:20525800D0F8882404A9D420904790BB5746226802F580721068C088B84210DDADF8006043
:20527800ADF80270D2F88823D120694690470028C4D1BDF81000BDF804108842BED12068E7
:20529800D0F80001C088B842BBD1ADF81480ADF8168006A85946082208F0BAFC2068D9F86D
:2052B800003000F29447D3F80001837A5046834292DC19250A9851F0B7FA08980BF0A4FD39
:2052D80028460BB0BDE8F08F140100202DE9F047644E04469246306894F83080D0F88824CB
:2052F8000F469946ADF1300D0DF10E018B2090473068D0F8882401A98A20904794F8250010
:20531800002840D1B8F1000F1AD1BDF80E104FF6FE70884206DCBDF80E10884240F09C807E
:2053380001A916E0B4F844009DF80E508DF8100000128DF81100BDF80E008DF812501CE0EF
:20535800B8F1020F0AD0B8F1030F40F0858004F1280104A80EF06EF9092512E0207CC009FD
:2053780034BFB4F84200B4F844008DF8100000128DF81100208D8DF81200001205258DF802
:205398001300002015E002280CBF05250925012818BF04F11C0106D13068D0F8882407A9DB
:2053B8008920904707A904A86A1E06F007FD94F826000DEB0501C8733068D0F898343A46E0
:2053D800294604A89847002846D1B8F1000F19D1BDF80E104FF6FE70884205DCBDF80E10D6
:2053F800884239D101A915E0B4F844009DF80E508DF8240000128DF82500BDF80E008DF892
:2054180026501BE0B8F1020F09D0B8F1030F23D104F1280109A80EF00DF9082212E0207C36
:20543800C00934BFB4F84200B4F844008DF8240000128DF82500208D8DF8260000120422C5
:205458008DF827003068D0F8A444CDF80090386809A95346A04708B1F32000E000200CB091
:20547800BDE8F0871401002001282DE9F84F40F0B080DFF88491D9F83401012840F0A6806C
:205498000220C9F834010DF0A9FC01200CF064F95FEA000805D00120C9F834010DF0ACFCDE
:2054B80099E011200EF060FA00280CBF0025012510200EF059FA08B145F002050F200EF0F1
:2054D80053FA08B145F00405444CA06A0068014601208847012805D099F83801012818BF6F
:2054F800002703D1002002F085FB01270EF036FADFF8ECA040080AD20026206A806801464B
:20551800504688478346BBF1040FF6D000E00126304600214FF0FF3252F08CFC012E0ED0DB
:20553800BBF1010F05D1206A4068012102465046904732496C39086840F003000860206805
:2055580040690146284688470B200EF00DFA254E30B12068C06A3146091D02460888904784
:205578000A200EF001FA28B12068C06A31460246088890471C4903200124C9F834011B4E33
:205598000C600023336028460AF0DEFD0128FAD1174D286804200CF0DFF8064615480460A2
:2055B8002868012F02D1204602F024FB0EF0B2F908200CF0D1F80746C9F834410DF01CFC9B
:2055D80057EA060018BF4FF0FF3804E06FF0040801E06FF001084046BDE8F88FB80100100C
:2055F800004003404A170000282008600C2008402C2009400C400940EC1C0020902208403F
:205618002DE9F04F634C8346A4F10805A868D0F80001807AADF12C0DC00007F053F90890BE
:205638000EF0C5FA0A90A86800F59162D0F8000100894FF6FF790026C846CA4636E006AFE5
:205658005946082238460DF0DDF978B92068D0F81C153846884700283AD02068ADF8049026
:20567800D0F894246946D120904731E0ADF81480ADF8168006A8FF21082208F0C9FA20685B
:20569800D0F8942404A9D42090472068ADF804A0D0F894246946D120904720682268D0F858
:2056B8000001761CB6B202F591620089B04208DC0A9851F0B9F8089808B10BF0A5FB0020E6
:2056D80064E02068D0F80001C07A0127002531E02068D0F800012268C0886D1CEDB202F543
:2056F800916230E0ADF800608DF802501268D02069469047A8B99DF80C00012810D19DF822
:205718000B0068B90DF102020820002112F8013FFF2B03D1401E01F10101F7D10829BCD0DB
:20573800002720682268D0F800016D1CEDB202F59162C07AA842D5DC002FAED12068D0F86A
:205758000001C0880025A842A7DDADF80060ADF802501268D120694690470028B8D1BDF802
:2057780004008045B4D0ADF810002068D0F8882404A9D420904700283FF461AF0A9851F04D
:2057980053F8089808B10BF03FFB19200BB0BDE8F08FC04614010020F8B5074661485F4C77
:2057B800001DC26A0168B7F5C067C2F30722C4F81071C1F38441C4F81421C069C4F81811B9
:2057D800C0F38120C4F8280100F0A38094F830616EB9C4F82C71D4F81801C4F82001D4F83A
:2057F8001461C4F81C61D4F82851C4F82451D4F82C01D4F81451002854BF02236FF0010380
:2058180004F59072116800EB4000C018431000EB937001EBA0011160D4F82011C4F81C5194
:2058380000291CDD1E293DDDD4F8240130B93429B4BF15391E21C4F8201125E02A29BABFD8
:20585800D4F820010B381E20C4F82001D4F81C013E28D4BF401C3F20C4F81C011FE0D4F8A4
:205878002401032812D011F10A0FA6BFD4F820010B300120C4F82001D4F81C010028CCBF9C
:20589800401E0020C4F81C01032009E011F1140FA6BFD4F8200115300120C4F820010020B3
:2058B800C4F824014FF08057D7F8A401B4F81C111B4D40684FF47F42082306460091284602
:2058D8003021B047D7F8A40101214FF40032112340680091064604212846B047D7F8A401A6
:2058F800B4F8201140684FF4F80212230646009104212846B047D7F8A401B4F82411406835
:205918004FF440620A230446009120212846A047F8BD002084F83001F8BDC046EC1C002087
:2059380000A00C4000A00C402DE9F04704460020ADF1200D5E4D04908046059004A905AAFF
:2059580006AB286894F82470D0F8A864CDF818802046B04700284FD1049A66696068238917
:20597800AA46311AAAF10805581A1FFA80F91AB9A868D0F84C058047A868B4F85C30D0F855
:20599800B0C400930196CDF808900598001D03900498A169A36D3A461530E04760BB05F1F4
:2059B8000806336803F5867318682289395C501A94F86020208132B1D3F800122046884769
:2059D800336803F58673A68906F00706032E02D160680078E073D3F89033E27B384631467A
:2059F8009847DD2810D00746A868D0F8AC34E27B04983146984708B1C1B231E00598007C21
:205A1800464620B9DC2F02D1DD20014628E0A069B0F1FF3F04BFDB2080461FD0A868D0F8AC
:205A38008C2407A97120904755462868D0F8000103892C27304601E0401C80B2834211DC1C
:205A58000598A169C368F200491CD150C0681058B0F1FF3F02D106980121C17040464146A4
:205A7800607020E00799049A07FB00119142E3D12968D1F800118A7A464601E0761CF6B250
:205A9800B24206DD0599C96801EBC60189888142F4D1B24206D00599C968A26951F83610C9
:205AB8009142C9D9DB2108B00846BDE8F087C046140100202DE9F8435F4CDFF868815B4D9C
:205AD800D4F83C0100286ED0574E401E0AD0401E60D0401E1CD0401E53D0401E1AD0401E63
:205AF80033D02FE04E4801250221006884F83A517022042340680091002107464046B84749
:205B1800356004F150000EF03CF82846BDE8F883022100E003214FF08059D9F8A40184F8A2
:205B38003A1140680025702204232946074600954046B847D9F8A401C068702229461346AE
:205B58000125DAE70320BDE8F88300262E606E6028688008FCD268688008FCD23748344979
:205B78000127001D06600E200F6004F06BFB02200CF0E4F8C4F83C6184F83B610220BDE839
:205B9800F8830520C4F83C010027376030688008FCD242E00320C4F83C0100273760306814
:205BB8008008FCD239E0234F01260F202E6042F62A21C7F80B004FF08059C7F80F10D9F8F4
:205BD800A40140684FF4C072072302218446404600910021E047D9F8A401C06800214FF473
:205BF800C072072384464046E0472E6028688008FCD394F83901C7F81B6018B90321002030
:205C18000E4602E0002028630321C4F83C6147F8011C686068688008FCD20020BDE8F88384
:205C3800A401001000A00C4058600C4054600C4004800C4001400C40EC1C002038500C404E
:205C58002DE9F04F5F4C0C3C94F8318094F832A04FEA880000EBC8000019B0F84C00ADF12A
:205C7800240D0025ADF81C0004F1300008904FEA8A0000EBCA000019B0F84C60657006A8D0
:205C98000BF07AFBAB46BDF81C106078162951DD002840F09080BDF81C0001AAC01F81B26F
:205CB800ADF81C10404605F067FEBDF81210BDF81C200D46E81D05F1100387B2934273D899
:205CD8009DF80E0096286FD19DF80F00420827D2800825D3BDF81C00CDF800B0401B1FFAEA
:205CF80080F99DF80D20BDF81C004346401A80B20BF028FE70B9E068C6F1885209EB4839D3
:205D18003B46D21B494602F500520DF0A1FEF619B6B205E0BDF81C00401EADF81C0043E01A
:205D3800BDF81C00401BADF81C00BDF81C1060781629ADDC00283ED14FF6F0704FF400516D
:205D5800C6EA0040C6EA0141E1FA40F01FFAA0F283B2102102F1885250460AF0DFFB61781D
:205D78000843607006980DF0C3F908994FEA8A0000EBCA0040188683BDF81C70A4F844708E
:205D9800A4F84060B4F9422094F83D10012350460CF0A8FB94F83E10B4F9442050460223C8
:205DB8000CF0A0FB58460AE0404607A908F0CEFE01283FF468AF06980DF09AF9102009B028
:205DD800BDE8F08F042300202DE9F0475B4F814607F108000068416EADF1280D02A888471F
:205DF800524D2A6840321068006820B9D2F80C0580472A6840324E484FF001086E6880F85D
:205E18000080F068007830B9D2F818244046002190472A684032106801684C6808892178EA
:205E38008246C1F3401104F049FC079007F070FE404E746786F873A00024A6F866400DF0E9
:205E5800B6FE059482463146B9F1010FA6F8664004BF3948C1F8F00039F001093E4643D1E8
:205E78008C66A1F8D64001F16400C1F8D80091F8713091F8E12091F8EB70022068F3030367
:205E980060F3030281F8E12091F8E02081F8713064F3030281F8E02027F00F0242F0040240
:205EB80081F8EB202A6840321268126853681B7801F164079B090CD301F120038B66526860
:205ED800927891F8715081F82E2060F3030581F8715001F1100001F1D40242604A7F64F36E
:205EF80003024A77014601E064310F46B068144A056D08238DE81800124B106802AAA847A2
:205F180011490028088006D4104991F90000F760401C087004E0404641F2883108F010FF1A
:205F3800504650F081FC0AB0BDE8F0871401002003280020B0190020801A0600582300207C
:205F5800B424002021280000982700200C2800202DE9FC418046D8F80450D8F800602878A8
:205F780069460DF0DDFB28780CF094FA96F82410002781424AD03079401E28D0801E1FD009
:205F9800801E012803D9001F14D0801E35D1307C10F0120F08BF02240AD00324B269F1696F
:205FB80030683471891A0DF0EAFD30680DF0E9FD347122E0307C800928BF20270A201DE059
:205FD8000421307C3171800828BF022717E00DF053FF317CB060480828BF012711F0120F1A
:205FF8000BD00322B369F16930683271C91A0DF0C6FD30680DF0C5FD01E00220307196F8AC
:20601800240000284DD0012851D058E03079401F22D0401E17D0801E08D0C01E3AD10721B7
:20603800307C3171C00828BF042735E0B0680DF029FB317CF060C80828BF0427080928BFFB
:2060580047F0080726E0B0680DF01CFB317CF060480928BF14271DE0307C80090ED2B06816
:206078000DF010FB07213171317CF060C80828BF0427080928BF47F008070DE00822B369E6
:20609800316A30683271C91A0DF079FD30680DF078FD01E00720307196F8240038B1012845
:2060B8000DD1009921F0C06141F0807104E0009921F0E06141F00071287802F075F92FB1AC
:2060D800706918B10246394640469047287809F073FFBDE8FC8170472DE9F0435A4C94F883
:2060F8004201ADF1140D002840F093804B484C4E4FF00108027B3368416884F842818146DF
:2061180084F84121C3F38147C4F86C11BFB9D9F81000A0B156F8085C0DF0E4FB64210246CD
:20613800C5F306604143B1FBF2F23E49002304F194000AF0E8FD3C494FF00040086001A8EE
:206158000DF072FC00252F4604F10C00029501AB8DF80470354903953A460AF0D4FD01A8DB
:206178000DF062FC04F150000822029501AB8DF804702F4903950AF0C6FD2E4A04F1D800EF
:2061980032213B460BF020F82C4A2B4F04F1F4002C212B463D600BF017F8294899F80D3083
:2061B80000783068C0F381501BB1032803D184F8398103281FD002281DD001281BD14FF0AD
:2061D8008059D9F8A4011F4C406803214FF040521C230746009129462046B847D9F8A401E9
:2061F800406829464FF4007209230746CDF800802046B84706E0386840F0400038600220E8
:206218000BF0B4FD56F8040CC00802D228460BF0ADFD05B00020BDE8F083C046BC1B0000E3
:20623800B44F00504933010000A10C409BC200000D060100ED2501009022084069DF0000C3
:20625800AA34002000A00C40EC1C00202DE9F041584C5549A060ADF1400DA16208A80DF0F0
:206278004FFA524F002008AA394602F01FFD002108AAE063012002F019FDA063406800785B
:206298000CF008F960BB0BF0A7FFA06A40B3026932B3072504208DF818500026ADF81A00BE
:2062B80006ABADF81C6093E8030090470520A36A8DF818501A69ADF81A0006ABADF81C606C
:2062D80093E80300904706208DF8185006ABA56AADF81A002A69ADF81C6093E803009047B6
:2062F800A06B39460DF010FC02A80DF0D5F9012002A902F0E1F8206302A9002002F0DCF8D3
:206318004FF4FA710322606309F008FCA06A002846D04769DFF898806FB1009441460EA8FA
:206338000A68898802600EAE818096E8030001230022B847A06A002832D0026952B14146B4
:206358000EA80B68898803600EAF818097E803009047A06A20B3476917B3072006268DF842
:2063780010000022ADF812600CADADF8142004AB009593E80300ADF830200223B847BDF89A
:206398003000A66AA080F46954B1BDF8300004AF401CADF8300097E8030002220CABA04716
:2063B80010B0BDE8F081C046540A0020BD2B0100B41D00005C1E00202DE9FF4107467D688F
:2063D800BE680C460DF0F3FB2978012903D150F02BFA002091E00121297050F025FA2078FB
:2063F80068706078A87060686860A068A860E068E86020692861207D2875607D6875A07D6A
:20641800A875A069A861207F2877607F4FF0000843466877A07F2B63C5F82080A8771C46DE
:206438006C626C63AC62AC6385F82C4085F82D4085F8B84185F8B941706804F059FA38462D
:2064580004F0B2FA384603F0BDFF78B92C480068C068014630688847706803F0F3FE0DF0BB
:20647800A6FB2C7050F0E0F9274645E068460DF05FF9327B05F17C00B1680192214A00974C
:206498006B460AF0A1FE68460DF082F9316902911D49009705F198006A4609F0BBFCA8783C
:2064B80030B905F1D40021460BF06AFE17482861687830B905F5927021460BF061FE14487D
:2064D800E86068460DF0B0FA01948DF8004005F5BA70104902970A226B460AF014FCB16996
:2064F800F26905F13C000DF0E9F80B4A05F1680004213B460CF00AF838460090BDE8FF818F
:20651800D0010010116C0000ADEF0000053B0100C33A01009508010049380100F8B5534EBC
:20653800564D30680C3DB830A978C2696F8992F883304F4A012B72D102F18803197800241B
:2065580064F30301197092F80011C2F8844064F3030192F88C3082F80011012161F3C303BE
:2065780082F88C3092F88C3061F3041382F88C304FF4FA53C2F894300FB969810F467168F8
:2065980049683C4B097808314F431978794300910168087800283ED00A6C002A3BD005F1C1
:2065B80008016846904707466979AA783248652F23D0DFB93068403001680A68117D0529AC
:2065D80029D1D0F8941091F8297027BB92F82C10042920D1806FC569116B906D2346A84767
:2065F800C8B93068D0F870121A2004E004703068D0F8701238468847F8BD33681D6C2D68F1
:2066180085F86910196C096804701C2081F86A2005F022FCF8BD00980BF08EFEF8BD002304
:20663800A2F8E230C06990F8314082F8E44090F8240082F8E50092F8E60063F3451082F836
:20665800E60092F8E60020F01F0040F0010082F8E60092F8E60063F3871082F8E60082F8D5
:20667800E81082F8E73082F8E930F8BD14010020B019002040260020833900209C260020CF
:206698002DE9F047564CA4F1080000F108058068D0F80001807AADF1280DC00006F012F919
:2066B8000028089008BF1A2400F095800DF07FFA8246286800F59162D0F8000100894FF6AB
:2066D800FF780026C14608E020682268D0F80001761CB6B202F591620089B042D8BF002421
:2066F80073DD2068D0F80001C07A0127002548E0ADF81480ADF8168006A8FF21082207F0CF
:2067180087FA2068D0F8942404A9D42090472068ADF80480D0F894246946D1209047206830
:20673800D0F800012268C0886D1CEDB202F5916230E0ADF800608DF802501268D02069468F
:206758009047A8B99DF80C00012810D19DF80B0068B90DF102020820002112F8013FFF2BBE
:2067780003D1401E01F10101F7D10829ACD0002720682268D0F800016D1CEDB202F5916252
:20679800C07AA842D5DC002F9ED12068D0F80001C0880025A84297DDADF80060ADF8025056
:2067B8001268D120694690470028B8D1BDF804008145B4D0ADF810002068D0F8882404A9BE
:2067D800D4209047002893D01924504650F02CF808980AF019FB20460AB0BDE8F087C04624
:2067F800140100202DE9F843554C2168D1F8D40090F8837040310868006820B9D1F80C05BD
:20681800804721684031886FDFF81C81474E484D007880B90DF0CBF94146097831B93178FD
:2068380021B9832129704FF0FFFF62E0022129704FF0FAFF6BE0012F0ED1D1F89400D1F836
:20685800FC1390F853008847C07B022804D13D48001D007804F0AEFE0AF036FC3548006862
:20687800354F016C3868884707460DF0A0F981464046007800283FD1307800283CD120685B
:20689800D0F8B800C16C002088472068D0F828246946F4209047294E9DF90000B8421CDC0F
:2068B800B079D0B948464FF0BFFF7078042803D02068D0F84C0580470420B77923682870BD
:2068D800781CB071D3F8B800C16C09B10320884703207081FFF722FE19E083202870002011
:2068F80004F0C6F948464FF09FFF6168307A0969087007F051F80AE00220287048464FF054
:2069180093FF2068D0F8B800C16C042088476068C068007828B92068D0F858240020014629
