:20000000A03A0120B502010039FB021039FB021039FB021039FB021039FB021039FB021089
:1C00200039FB021039FB021039FB021039FB021039FB021039FB021011FB021002
:20003C0098380020C8340020143800203C35002088260020B0360020A03800204037002038
:20005C0024380020D035002084190000E01C0000781D0000FC1C0000EE1C00003438002007
:20007C00E8240020EC240020F0240020F4240020F8240020FC240020002500200425002092
:20009C00082500204438002004350020EC370020FC3500209E1400002C1400001015000057
:2000BC0082150000F4150000B81B0000241D0000181D0000E23800208438002014270020CA
:2000DC005C37002040260020AE380020AF3800207035002000380020502200200C250020BE
:2000FC00A8120000AA0F0000EC170000C4200020C01C0000B4300020D8380020D43800202E
:20011C001025002014250020CC3800200C190000AC370020343200204C340020401700004C
:20013C0058270020B4380020C4380020A41D0000F41D0000B42400201C2C00204028002022
:20015C00014A031049480310D549031015470310C5B300005D49031081470310A1460310DB
:20017C009548031045450310254A031021440310ED47031099490310E148031021490310E7
:20019C005553031089520310CD520310655003108D4E03106DB8000025CE000099EE000013
:2001BC007557000059510310ED5003105DAB0000CD4B03102952031011530310A955031001
:2001DC007555031069530310DD55031035550310C5B7000021540310855C03100D56031007
:2001FC004D5D0310A9640310B55B03106D570310E5610310095E0310C55803108560031011
:20021C0071610310B16203109963031055630310FD600310B15E03105DA50000D55A031007
:20023C00D559031009630310D963031019640310555F0310C56403104D6203107164031056
:20025C008D64031055640310E16403102975031079720310A16B0310F57203109D740310EE
:20027C00797403102D74031061730310FD7303105574031015750310D96C0310FD740310EF
:20029C00017F0000E17403103D750310ADAF0000F9640310CD6803102D710310C174031088
:2002BC00F56E0310B973031029670310056E0310C56F0310A5C60000A1770310797D03105E
:2002DC003D7E031049750310157E0310357D031099760310997C0310257B031071780310FF
:2002FC00B57D0310ED7C0310857E03102D790310B97A0310917B0310B1790310ED7B031035
:20031C00E97D0310617E0310357A0310D57E0310457C0310A57E0310BD7E03100999000034
:20033C00D9800310E97E031049830310898403108D8103107D820310E58403102B8403104B
:20035C00C5830310918703106188031045880310F1850310B18803107D880310C9880310CE
:20037C001D870310A186031001850310E188031099880310F9870310E1A90000359C031026
:20039C00819D0310E99A0310359B0310C19B0310419A0310F18803101D8C0310618F0310EF
:2003BC00F1940310919E0310C19E03103D9E0310699E0310259E0310619D03100D9E031028
:2003DC00819B0310ED93031055990310C9970310D9980310BD950310959C0310C19D03102D
:2003FC00A59E03107D9E0310C9910310E5CB0000699C0310DD9D031095900310FD9B0310B8
:20041C00CD990310158E0310019D0310E19C0310219D0310419D0310BD9C0310F59D03107D
:20043C00A19D031055980310E1920310999A0310B99E0310559E03102D240100553C01002F
:20045C0039A203106738010069A1031075A20310C59E0310B9A10310F9A1031015A1031052
:20047C009DA20310954501005FE4000021A60000E11C0100C94401009540000031A903105B
:20049C00ADA203104D6E0000B9A8031099A50310A594000039A803106DA90310CD9F00009C
:2004BC006DAC031099B1031009AF031059B1031001B103109DA90310C9D6000095C9000094
:2004DC00AF120100E5BC0000C55A0000610801005DBA000021610000218E0000C193000078
:2004FC00459D0000F1B9031075BA031081BB03106D2101007DDB0000CDFA000041A200001F
:20051C00C11E01003DF600009D290100A1F600003521010021330100613B01006DFA00009E
:20053C0091110100312501009D0A010009C30000813E0100D9E4000005140100B13E0100AA
:20055C0001760500F95D000021590000856B0000E9C60310F1510000C1850000A540010013
:20057C00BD2201003B3C0100EDFB00000D4701006F3C010091400100BD470100E5FF000063
:20059C0059D0000095CD000001000000000000000000000000000000FFFFFFFF042800206B
:2005BC000400000000000000000000001400000030FD021018000000D41D00006406000055
:2005DC00DC2700200400000000000000000000002400000018FD021018000000B93F01007C
:2005FC00080000005407000018060000C1C8021001BB021091EB0210DDE5021081E0021020
:20061C00B9E5021071E50210310000000100000001000000281E000000000000FFFFFFFF31
:20063C00FC27002004000000000000000000000028000000B8FC0210240000001E00000027
:20065C001800000000000000CC080000780600009BEC021025E2021005EB021025DE02104B
:20067C00FDE10210E1E402102F000000340000002400280000000000E8260020FFFFFFFFBE
:20069C0024280020040000000000000000000000380000006CFC02102800000001000000F3
:2006BC00100000000000000000000000F7F1021000001A0010000000030000006C1D00005E
:2006DC000B1D00000800000036000000A82600204825002009001D00CB2601004824002079
:2006FC000100000000001200FFFFFFFF14280020040000000000000000000000100000005F
:20071C0048FD0210180000000000000000001300FFFFFFFF2C2800200400000000000000C7
:20073C000000000054000000A0FB02103C000000000001002D000000A8050000DF1C010089
:20075C0030000000D7460100540700007C07000015040100D9DB021059EC0210CDD6021065
:20077C0085DE02104DE5021029E5021030000000000016000000000000000000FF7F0000C0
:20079C0074230020FFFFFFFF0C28002004000000000000000000000058000000DCFB0210F1
:2007BC003400000039FB021001002F00060000000000000020000000010000001BF8021027
:2007DC0028000000CC080000F407000093EC02106DEB02104DEC021029E00210BDE40210F2
:2007FC0099E402102D00000000000000E427002004000000000000000000000010000000E2
:20081C0040FC02102C000000000000000000030000000F003C0000000000000000000000F4
:20083C002FF902101000000008000000381C0000FFFFFFFF1C280020040000000000000092
:20085C00000000001C000000DCFC021024000000E0070000CC270020040000000000000054
:20087C00000000000C00000000FD0210180000003F2F0100000000000000000008000000B2
:20089C0001000000040000000000000000001400000000003C18000000001900000018009E
:2008BC0024000000F14701000040000000020000A80500000000100055F002100C0000005D
:2008DC00198B000000000000C42700200400000000000000000000002000000010FC02100B
:2008FC00300000005418000001000000BD460100EB16010000000000000017000002000020
:20091C003100000000002300000015000100000064070000F42700200400000000000000A7
:20093C00000000002000000094FC0210240000006C18000090270020200000005C1A0000C4
:20095C002C30002014340020A42700200C34002020230020A83800201C1200006C380020F7
:20097C00A02F0020B8310020C833002084270020392800209C1D000009080310010103100A
:20099C00890903105D0303100105031089060310D1080310210A0310810B0310810A031001
:2009BC00110B0310510B0310D10A031029100310610D0310890E0310050E0310B50F03101B
:2009DC00D10B0310511003103D10031065100310FD0E0310ED0F0310B50C0310650F031028
:2009FC00111003106910031009120310F5120310AD110310291103105D120310B11203105D
:200A1C0019250310552703108D240310F12603100528031089260310CD2303105928031053
:200A3C00ED1F0310251303100D210310911D0310B12703100D2203109925031019260310DE
:200A5C00A91B0310CF2803109528031039290310052903106D29031099160310C91E0310AE
:200A7C007D1903100D230310C92C03101D2C0310292D0310B52B0310F52C03109D290310A1
:200A9C00CD2A0310452B0310472D0310112D0310412D0310752C031029340310C138031024
:200ABC0071360310A12E0310813303107D130100A93A03103D3A0310C5340310113803103E
:200ADC00753A03104D2D031009320310E12F031015390310F939031019310310B13703103C
:200AFC00F5350310B13903105D350310C5320310E5360310693903104D370310253D031002
:200B1C00413D0310F53C0310C93A0310A53C03109D3D0310593D031019430310CD3D0310B8
:200B3C00A14303104D400310093F031061420310CD400310C9430310E5430310C93F03105C
:200B5C0011440310FD4303101F440310A942031019420310E1420310C141031075430310C6
:200B7C0049430310494103101B440310AD0B0310594701005D47010069470100F3450100B0
:200B9C006D47010065470100614701007547010071470100B83800206D400021D7400021A2
:200BBC009940002105410021114100211D410021354100214D410021074C657900F009F85E
:200BDC0061796940490703D50121044A8903116070BD70B5024908478003002108110440F4
:200BFC002D59000000F019F8E1B26C290BD0042801D0062807D110490978C90703D1217835
:200C1C00090700D402200D490A780C21114202D00B4980220A6003B0F0BDF0B583B009499E
:200C3C00084700200849884704480178402291430170064800470000C800002133010021CA
:200C5C0000E200E041160300F7630000231B030000F082F800480047577F000000F082F888
:200C7C00004800471B880000094B1A780824A243002800D022431A70004A1047838E000096
:200C9C0003490878000701D40248004770470000800300215F7E0000044A2820904704480E
:200CBC00012141600348044A416010474F42000000500440006004408542000070B51F4DA3
:200CDC002878C4B21E4880472878032834D1032C32D01C488068400DC2071A480146603118
:200CFC008030002A03D01F240C57458802E01E240C570588002C1FD01348154A41690079AC
:200D1C004143481011494969401810494039497F904740054015694288420DDBA8420BDC3E
:200D3C000C4B996988B20246090C624309045212801880B20843986170BD0000E40200214F
:200D5C0079410000280000218003002100030021CB81000040400440806B0C490007000F46
:200D7C0048717047094A0A4918235079CB56497EC018814201DD084602E00F2800DD0F2069
:200D9C00D189090909010143D1817047E0020021880000210097B92EE5725CCB5DCAE4734E
:200DBC00B82F0196BA2D03945FC8E671E7705EC90295BB2CE3745ACD0691BF28BE29079027
:200DDC005BCCE27559CEE077BC2B05920493BD2AE17658CF51C6E87FB4230D9A0C9BB52207
:200DFC00E97E50C7EB7C52C50E99B720B6210F9853C4EA7DB2250B9C57C0EE79EF7856C1E7
:200E1C000A9DB324089FB126ED7A54C355C2EC7BB027099EA2351B8C47D0FE69FF6846D1C6
:200E3C001A8DA334188FA136FD6A44D345D2FC6BA037198E41D6F86FA4331D8A1C8BA532A6
:200E5C00F96E40D7FB6C42D51E89A730A6311F8843D4FA6DF3644ADD1681AF38AE39178086
:200E7C004BDCF26549DEF067AC3B15821483AD3AF16648DF1087A93EF5624CDB4DDAF46366
:200E9C00A83F1186AA3D13844FD8F661F7604ED91285AB3C00CD2A031000452B0310021F12
:200EBC0044031000FD430310011F44031000FD43031003D10B031000FD43031004511003F5
:200EDC001000FD43031001472D031001412D031001FD43031001FD43031001FD430310008D
:200EFC00752C031001FD43031001FD43031001FD43031001FD43031002472D031002412DD9
:200F1C00031002FD43031000752C031002FD43031002FD43031002FD0E031002FD4303107A
:200F3C00046510031000FD43031003472D031003412D0310031F440310031F44031003FDB6
:200F5C0043031003D10B031003FD43031000752C031003FD43031003FD43031004472D03FC
:200F7C001004412D0310041F440310041F440310041F440310046510031004FD430310046B
:200F9C00FD430310043D10031000752C03100001363601010001020100010301000104014C
:200FBC000606080400000C0100340D01000F10040101140100FF1608000020020000220112
:200FDC0000FF23010001240100FE250100082602000028010001290100012A0200002C01AA
:200FFC00000F2E0200003001000131010008320200FF34010007350102FF36010000370115
:20101C00000138010001390100FF3A01000F3C0200FF3E01010F3F0100014001041F410183
:20103C000001420100FF43010080440800004E0100084F01000F50010001510100FF520195
:20105C00000A5301008954010001580400005C0400006004000064040000680400006C04D3
:20107C0000007004000074040000780400007C040000800100FF8101000182010001830161
:20109C00010284010001020344280020E4380020E538002045280020DC3800204628002052
:2010BC0047280020A1450100FD380000D93D01008D2D0100612D01002DFF000089FF000054
:2010DC006DC20000E1150100593001000D2901004D0A010061460100B94001004D35010090
:2010FC0061240100B5320100092D0100352D0100952401003D290100D9D7000099A40000BE
:20111C00EB2E01000D0301000DFA00007D45010089450100F3E80000F13A01004FED0000AC
:20113C0099C0000049110100E5D00000C9240100AD450100ED360100393E0100C5470100A0
:20115C00FD1E0100E96C0000CD36010011D30000010D010003080000000000000000000000
:20117C000001640300000000000000000538000000000000000000000000000000000000AE
:20119C000000000000000000033800000000000000000000820108101400008400000000C5
:2011BC004E90550000000000073800000000000000000000000121030F008000520798E01C
:2011DC000800C810D02500206403008005000000043800000000000000000000000188F954
:2011FC004E90550000000000FF0710580000FC010000000000000000000000000000000035
:20121C000000000000000000000000000000000000000000000000000000000000000000B2
:20123C00000000000000000000000000000000000000000000000000000000000000000092
:20125C00000000000000000000000000000000000000000000000000000000000000000072
:20127C00000000000000000000000000000000000000000000000000000000000000000052
:20129C00000000000000000000000000360001000600000000000000000F000000000000E6
:2012BC00000000000000000000000300FFFF00000403FFFF0000FFFF0F00E8030005401FB0
:2012DC000310000101000000FF3F0F0008000E0000000000000000000300010F000009015D
:2012FC000000000000000000000000000000000000000000000000000000000000000000D2
:20131C00000000000000000000000000AD0000010000000000000000000000000000000003
:20133C00000000000000000000000000000000000000000000000000000000000000000091
:20135C00000000000000000000000000000000000000000000000000000000000000000071
:20137C00000000000000000000000000000000000000000000000000000000000000000051
:20139C00000000000000000000000000000000000000000000000000000104000033333393
:2013BC0033333333330000000000000000000000000000000100000000000000020000000F
:2013DC00000000000333333333333333330301000000000000000000000000000000FFFF54
:2013FC00FFFFFFFFFFFFFFFFFFFFFFFFFFFF014648546573740000000000000000000000B0
:20141C000000000000000000000000000000000001017101010101011101010131010101F0
:20143C00010180010001100161013B001400630173017201620143010001130106013D01FE
:20145C00350004011201000100010001000104010401330133013C014401320136000001C1
:20147C000001650100013500810100010501820183010001660100010001080109010A019B
:20149C000B01030071003001600011007000310220035004800007001000610000001400E8
:2014BC006300730072006200430000001300060000000000040012000000000000000000F4
:2014DC0004000400370037003C0244000000000000000000650000003500810000000500D8
:2014FC00000083000000660000000000080009000A000B0003027102300160021102700231
:20151C0001020202020280020002100261023A004100630273027202620243020002130222
:20153C0038000002000204021202000200020002000204020402370037003C024402000231
:20155C00390000020002650200023502810200020502820283020002660200020002080285
:20157C0009020A020B02010371030103010301030103010322030203010300031003000358
:20159C00000300030003000300030003420300032403060300030003040312032503230335
:2015BC002503230304030403000300030003440300030003230300036503210035038103EF
:2015DC0000030503000300030003000325032303080309030A030B03030471040204600472
:2015FC00110470040204020401040204000410046104000414046304730472046204430495
:20161C0000041304060400040004040412040004000400040004510464000004000400048E
:20163C004404000400040004000465040004350481046400050400048304000466040004A1
:20165C000004080409040A040B040104073C0100D13F0100B5CE00006D1701008D3501000F
:20167C00A5C30000EDE30000A7340100AD3501004B2B0100792B0100E91B010035260100DA
:20169C00D13C010005FD0000850B0100ADF4000061FD0000DBFD02104533010011DC02102C
:2016BC0041CF000011450100112E0100E5410100F9410100993B01006536000039800000DC
:2016DC00000000000000000000000000013D01005941010099E700001D410100F5460100F9
:2016FC00EF4601006D410100000000008D46010025E70000B5EA0000653A010005CD0000F8
:20171C0083420100BD9A0000E54B000031D500008D3601000000000005020100113A010042
:20173C00A5BB000000000200000002000200020000003200040001000000020000000000EC
:20175C00000000000500010000000700060001000000030007000800000000000F00010037
:20177C000100FF001000080000000000180008000000000022000200000000008F00000062
:20179C008F0001008F0002008F000300900000018F00010190000002900000038F0001049F
:2017BC008F0000058F0008048F0000048A000006510000007F0001003F0004003F00020066
:2017DC003F0001007F0002008F0002048F00010238C40D00C80000008100000032000F0171
:2017FC0000C50D00900100004000000096000501952B0D00C80000002200000032000F0294
:20181C000000000000000000000000000000000000000000000000000000000000000000AC
:20183C007B7374617469632D696E7374616E63652D6E616D657D00C07B656D7074792D69BC
:20185C006E7374616E63652D6E616D657D00C0467B756E6B6E6F776E2D696E7374616E6387
:20187C00652D6E616D657D00F90001001FF9021045F8021059F802106DF8021081F80210C4
:20189C0095F8021081DF00002D2A0100ED1A010067260100D533010021420100ED370100AD
:2018BC004D22010095440100A13F010051ED000055400100C9420100A3440100B94201001D
:2018DC0075460100CB460100C5460100000000000000000000000000000000000000000012
:2018FC0000000000000000004144010033440100C003000080070000000F0000001E000057
:20191C00003C00000078000000F0000000E0010000C003000080070000000F0000001E00AF
:20193C0000003C00000078000000F0000000F0001404C0A0FE0000001404C0A00A0480A0DB
:20195C00090480A008400080FE000000030480800240008006048080070480800D200080ED
:20197C000E200080FE0000000000000002000000020000000A00000002000000020001008C
:20199C00000000000000000000000000000000000000000000000000000000000E0000001D
:2019BC0085460100E3460100BD27010085390100BD060100A139010001DD00008D14010052
:2019DC00F9440100597B0000F9DA000011F5000095460100BD6800001D7A0000FB46010026
:2019FC00690C01006D9600000147010051CB000054070000241A0000A9430100B94301006A
:201A1C00D9430100C9430100BD2A01001D340100692E01003200000000B000401400000078
:201A3C0034000000FF000000000000000302FFFF903600202000000001030000000000004A
:201A5C0015F9021001E602102DDA021045E7021041D10210C9D30210A5DF02102DE402106F
:201A7C0061EA02102D1B010000000000FFFFFFFFFFFFFFFF000000000000000001010101A8
:201A9C0000C201000300000000000000CC080000BC1A0000DD470100FDD100000DE80000D2
:201ABC005D2A0100F93301003D2E01002E00000000000000000000000000000000000000BB
:201ADC0000000000000000000000000000000000FFFFFFFF000000000000000000000000EE
:201AFC003A013A010000000000000000000000000000000000000000000000000000000054
:201B1C0000000000000000000000000000000000A81A0000D42700200400000000000000C8
:201B3C000000000020000000D01B0000180000000C1A0000EC270020040000000000000009
:201B5C0000000000140000006C1B00001C0000001C0000000000000000000000801B0000FB
:201B7C000000000008000000000000000100000040420F00010000000000000000000000AE
:201B9C00000000000000000000000580000006800000078000000000000000000000050092
:201BBC00BD00B700B100BC001C003000380008003801020018000000000000000000000049
:201BDC00E01B0000080000000000000048270020382700200400000004000000FFFFFFFFD4
:201BFC00000000000DA30000213C01000101010000000000020000000000000000000000B6
:201C1C00FFFFFFFF000000000000000006000000020000008600000082000000010000009B
:201C3C0000000000000000000000010000000100001610160E18151C021203241858030243
:201C5C0010025801000100010203000100010001020001020200000000000000FFFFFFFFF0
:201C7C0000000000D8320020A210000000330020A310000005000000D0070000C8000000C2
:201C9C00FF000000E82E0020F81D0000442F0020FA1D0000000000002000000040000000D4
:201CBC006000000088B2240088130000100000000000000100008080000080840020808476
:201CDC000040808400A6AAACA4A9A9A399B19ABCB6A8313118191A22311C1E2031313431F0
:201CFC00313117191A21241B1D1F31313331FF00FF00000000000000000100000C0E020B94
:201D1C00040B0A070800110F000120181A18182C34041E00BC190000D0380020C41D00007C
:201D3C00FF0001000000000000000000E4190000602A0020341A0000000000800020008072
:201D5C000040008000000080000400800008008025DD021031C8021075DF0210020402018D
:201D7C00010101090200000000BE040A00BE02080102000302000103FFFFFFFFFFFFFFFFA1
:201D9C0035452515020305040004081000040810943700200A1D0000E803000000006400CC
:201DBC00FF0000000000000000E0040000800000000000000800000000000000000000009C
:201DDC0010040810181C10000810182004040810181C0000010203040001050900010101B7
:201DFC000000000010000000010000001F470100E14701004BFC000025470100E50D01007F
:101E1C0069E30000D94701000A000000E93C010019
:201E2C002DE9F04FC14AC24F1068ADF12C0D08A90890096807F1100004462160516808AADE
:201E4C0008911268011D0A60BE49082211F074FA28B9BD490A682046026049684160BB48C5
:201E6C00BD4E8667BB4F4767BC4DC567BC4CC0F88040BC4BC0F88430BB4AC0F88820B4491C
:201E8C0001670026C0F89860C0F89C60C54FC0F88C70C54DC0F89050C44CC0F8A040C44B1B
:201EAC00C0F8A430C34AC0F8A820016FC0F8946009B13046884706F0D9F9C14FBE4DBF4CF4
:201ECC004FF6FF7BB246B946E888410854D36F78002F4AD15046D9F8287009904FB37F69AD
:201EEC003FB307208DF808000623ADF80A3009AAADF80C6002AB009293E803003246042308
:201F0C00B84718B909981930099014E007208DF808000627ADF80A7002AAADF80C6092E837
:201F2C000300D9F82830DF69CDF828A00AAB0422B847CDF824A004A80FF0F8F950B90998EB
:201F4C002E700CF0D5F8012012F018F8012012F057F90AE009980CF0CBF80EF087FF014653
:201F6C0004A80BF047FE0120287012F077F8AF48012112F03DF8E888C10906D312F06EF874
:201F8C00AA48402112F034F8E888010A09D389F80260304610F004F8A448802112F028F859
:201FAC00E888810804D3A148022112F021F8E888C10843D39E4832220C3830F80C1F8B452E
:201FCC000BD041894B0808D301F44073B3F5407F03D14FF6FF4319404181521EEDD14FF42C
:201FEC0040704FF4807110F073FE10BB904F32200C3F37F80C2F934519D079894B0816D3D0
:20200C0011F4407F13D102208DF81800ADF8102040F6B83104A807F003FC50B978894FF668
:20202C00FF5140F4807078810840788101E0401EDFD17E48042111F0DBFFE888000926D3BF
:20204C007A48082111F0D4FF0A208DF81000B5F89400014612F0A8FB8DF81100084612F0E3
:20206C004CFB8DF8120004A80DF0E4FF714812F075F9012802D16F4812F094FBD9F810009C
:20208C0042F2107112F004FB6A4812F089FBA088410804D36848012111F0AAFFA0888108D1
:2020AC0004D36548022111F0A3FFA0880109C0F09180E76894F82300B846401E00F082808B
:2020CC00401E6DD0401E35D0401E7ED1564904A80E220AF061F9381C05D0076808B10FF02A
:2020EC003FFB381CF9D1E6608DF81D6007A9E12012F0A2FC502004A912F016FB05A9E22003
:20210C0012F09AFC0DF11201532012F00DFB27691FB1396809B104A8884794F8220002287F
:20212C0014BF0320042011F029FF4EE0C84F00508024002094F82200032846DA227FE08BF2
:20214C0017E0C046941D0000F0120050E40900201DB70000AD0901006DD90000DDC40000F4
:20216C0021D4000079E100006DB20000401C80B2E0835FEA080708D0B97C8A4202D1F9896E
:20218C00884203D03F68002FF6D131468142EDD0218C532012F039F930460CF0F5FC14E057
:2021AC00304610E03DE6000055010100A13C0100D5E90000ADF00000E41F0020B0150020F2
:2021CC00941D002001200DF0DBFC1B48082111F00FFFA088C0080AD34120314612F00EF9E4
:2021EC00062011F0CBFE1448042111F001FF08F023FEE88800287FF467AE104840684FF0E9
:20220C00FF3155F0EBF900283FF45EAE0B4800780DF072FD071C3FF457AE00F015FA3846E3
:20222C0011F0BEF950E6C046EC130000EA1F002090160020001E0020B415002080240020C5
:20224C002DE9FE4FC34801930068DFF804B3C54B0C46B830C169DFF810C391F883100092AE
:20226C00012900F09180BE48BA4F05687868C068012100244FF0E046022717400170019A6C
:20228C001C70164008BF002F35D100994FF4803014EA020300EA010008BF00281CD10A46AE
:2022AC004FF400301040019A214611EA020308BF00280DD1019B009A4FF48000194000EA44
:2022CC00020008BF00280AD02C710CF0EDFF06E02C710FF065FB02E02C7153F08BFE0099DC
:2022EC00019B2020254608401D4008BF00282ED011F022FC2BE09BF90000002804DD5A4692
:20230C0092F90000401E1070C24A92F90000002803DD92F90000401E1070009A20461040F0
:20232C00019A4FF08073134008BF00280CD0BA4A92F90000002803DD92F90000401E1070A6
:20234C006046017011F05AFD2C710CF0ADFFB14991F9000068B1002E08BF002F12D091F990
:20236C00000000280EDC7B480068D0F84C05804708E0AA48774F04703868D0F858242146D5
:20238C0008469047A0463EE172494968009DDFF894924FF0000801221F464646C968DFF89E
:2023AC0090A20A70019987F8008020270F4006EA050108BF002977D1019928464FF0E0479A
:2023CC0030400F4008BF002842D12946DFF858C2DFF858E2019D4FF486004246084012EA8C
:2023EC00050708BF00281AD18D4812EA050700EA010008BF00286BD0019900984D4605F13E
:20240C002803AC80002983E8030008BFB0F1806F5ED16046078837F0020759D111E0019922
:20242C0000984D4605F12803AC80002983E8030008BFB0F5803F4BD160460088B0F5505FB8
:20244C0046D1A868774643693868214698473FE09BF90000002804DD594691F90000401EB7
:20246C0008702946019D40464FF0807708402F4008BF002803D06046027011F0BFFC52462A
:20248C00B2F90000844201D10CF00EFF4D466FF001006049A88091F90000002818DD91F9EF
:2024AC000000401E087013E06FF00101524600681180007860B15F480078832802D05E4989
:2024CC00812008704D46296911B140468847AC80019B00994F4FC24602205D461AEA0306C2
:2024EC0000EA010008BF002869D05449B1F846014E4643F20141814238D0C91C814235D0AD
:20250C004E49C98E40F609028A422FD095F90010002903DD95F90010491E2970B6F90410AD
:20252C008C4204D043F6040181422FD12CE006F1280090E8001844464FF4820314EA0C04D1
:20254C0003EA0B0008BF002806D10CF0ADFE1DE0752700201401002053F04CFD16E0C04694
:20256C00383600206C2700206D27002095F900407078002C00F10100707003DD95F9000038
:20258C00401E28700CF090FE10F0A0FE2B482D4BA0F8468118686FF00104D0F8B800B4802F
:2025AC00007810B12648007808B911F027FC97F90000002803DD97F90000401E387095F94F
:2025CC00000010B9154880F8008097F9000098B1009A019E02214FF0E0401140304008BFB5
:2025EC00002910D097F9000000280CDC15480068D0F84C05804706E012480068D0F8582495
:20260C004146404690470F484068C06880F80080BDE8FE8F74270020762700206A27002050
:20262C0000000C8CC02200202E1A00201C240020C4220020E3380020DE380020E818002095
:20264C00E038002014010020F0B50446BC480768ADF1440D002F00F0B1812078401E12282F
:20266C0000F2AC81DFE810F06E0157013D01280120010901F600E800C800B70092006700B9
:20268C005D004C00AA01340026001C0013007B6C002B00F093810020A21C014698478DE1C9
:2026AC00F86B002800F08A81684621460AF088FCF96B81E1386C002800F0808168460021A3
:2026CC0001220BF08DFE60788DF80000396C73E1F86A002800F07281684600210E220BF088
:2026EC007FFEA11C684611F059FBA67BA1890022ADF80A1006B101228DF80C20F96A5CE13A
:20270C00B86B002800F05A816846002102220BF067FEA6788DF8016060788DF80000B96BBF
:20272C004AE1786B002800F04981684621460AF047FC796B40E1386B08B3684600211422E3
:20274C000BF04EFEA6788DF80160A5680195A389ADF8083060788DF80000A27B8DF80A204D
:20276C00E17B8DF80B10267C8DF80C6094F911508DF80D5063690493396B684688476068A2
:20278C00002800F01B8110F00BFF17E1B86A002800F014816846002124220BF021FE6078A1
:2027AC00A11C8DF800000DF1020011F0F7FA04F10C0103A811F0F2FA267EE08A04F1190122
:2027CC008DF818600B22ADF816000DF1190009F0E3FDB96AF0E0786A002800F0EF8068460E
:2027EC00002102220BF0FCFDA6788DF8016060788DF80000796ADFE0386A002800F0DE8079
:20280C006846002112220BF0EBFD6688607825796379ADF80260E11D8DF800000B228DF84A
:20282C000450A6798DF805300DF107008DF8066009F0B2FD396ABFE0F869002800F0BE80CE
:20284C006846002101220BF0CBFD60788DF80000F969B1E0B86910B120460EF04FF8A078C2
:20286C0020B9A069002800F0A98003E0A069002800F0A4800EF074FFA0E07869002800F017
:20288C009D806846002113220BF0AAFD6D46A01C0168406829600B22686004F10A0102A8C1
:2028AC0009F07AFD796987E03869002800F08680204608F083FE81E0F86800287ED06846D0
:2028CC0000210E220BF08CFD6078A11C8DF800000DF1020011F062FAA089ADF80C00F96865
:2028EC006AE0B868002869D06846002114220BF077FDA01C01686D46296040686860A07AA2
:20290C000B2204F10B018DF808000DF1090009F043FDB96850E0786800284FD06846002169
:20292C0010220BF05DFD60786688211D8DF800000B22ADF8026001A809F02EFD79683BE07E
:20294C008C2400203868C8B36846002119220BF047FDA01C01686D46296040686860A67A46
:20296C000622002102A80BF03BFD700824BF01208DF80800B00824BF01208DF80900F008DA
:20298C0024BF01208DF80A00300924BF01208DF80B00F00924BF01208DF80C0036F07F0098
:2029AC001CBF01208DF80D0004F10B010B220DF10E0009F0F1FC39686846884711B0F0BDD1
:2029CC002DE9F04FCB4C60692589216AA689806DADF1240D2A468919083109F0DDFC7619E6
:2029EC00B0B26669B16D4919C34DB1652968D1F8D41091F88370216A0B1808331B780DF1C0
:202A0C001E021370DFF8F882022F00F1010080B208D141180A7A66694346591C0A70216AD9
:202A2C00401C80B20A180832126802A9001D0A6080B2A081042102A810F0E2FE0290034617
:202A4C0011F0C0FBF063184611F030F8A6F84000EA200FF0FFFCA9484FF0020B022F80F80C
:202A6C0000B00BD168684069007838B14146087810B94878FF2801D00420E0706769E078C0
:202A8C00397C084338749DF91E0011F093FE87F8460007F17406BE6539899DF91E007B6885
:202AAC0087F84800B7F85C004FF00008401AC01801467860B88987F84780820A18D2020998
:202ACC0026D310F0070F07D000F00700032812BF081C7868401C17E07968C87800F00702A0
:202AEC00401000F0380000EB42004018001D0BE02868D0F80813384688476769786E10B18E
:202B0C00B7F8680090B178687861B889000918D297F8600020B32868D0F80C1338468847DE
:202B2C006769F86CE0B1B7F85000C8B92868D0F8541204F114008847404660610CF0B4FBBC
:202B4C00D4E02868D0F8B41438468847787067697E78B86978651EB1F2200FF07BFC676975
:202B6C002E68D6F8B8100878002800F0B780BA89DFF890A1089202F00702022A68D163782E
:202B8C00002B65D17B78002B62D161698DF81F800DF11600283111F029FB616928314F681D
:202BAC0003A847600E8906810A680260574607F110022B681088401C1080D3F8B8006169BA
:202BCC00436A486E0DF11F020421984704F1140938B92868006C006818B19DF81F1080F8F7
:202BEC006810666996F83000022813D12868D9F80030D0F8D4705A4607F1200103F1280044
:202C0C0010F09AFB30B907F116010DF1160011F0EDFA66693C480078862809D1BAF8120008
:202C2C00401CAAF81200B08900F010000DF03CFE2968B8310A68107830B1976C27B160690F
:202C4C00394688472968B831D1F89C11484648E02E4A1378002B3AD0089AC2F30132022A86
:202C6C0035D1787800287FF469AF69689DF81E00896853460870E6786769988A002E07F1A3
:202C8C00280207F11C0C00F1010098820CBF414608212E68D6F8B8000378FBB11C4B404627
:202CAC0018600091CDF804C0D6F8D400117AD6F87863C38C0D20B04710B90DF04DFB01E03E
:202CCC0010F03AFF2E68D6F8B8106769087828B1896C19B1384688472E686769D6F85812B0
:202CEC00384688474046606110F042FF09B0BDE8F08FC0462836002014010020DE38002027
:202D0C00BC220020F8250020E3380020E0380020082700202DE9FE4F0090C54F0191386871
:202D2C00DFF814A3DFF81483C54D02924030D0F89410DFF8109391F88320BE499B46012A50
:202D4C0000F09F807A68D26801230024137056460C70036834701E6816B9D0F80C05804755
:202D6C0002984FF0E24616EA0B0604EA000008BF002869D10299A24608201AEA0B0600EA74
:202D8C00010008BF002858D0464696F90000401E3070B5F8D60042F20146864202D0311D10
:202DAC0081420DD1484600680199826C0098904730B10088B5F8D61042F60142824226D147
:202DCC00B5F86600A04EB0F5105F12D042F60601814237D17068B0F1FF3F1CBF401C706028
:202DEC003089401C80B2308171898142B8BF708139E0A96F48460C3001600FF0ADFB30680F
:202E0C00B0F1FF3F1CBF401C306034812EE0361D8E4214BFE1201C2009F00CFB98F9000079
:202E2C0028B198F90000002800F3FD80ECE03868D0F8582421462046F0E0464696F900001C
:202E4C00401E30701D200FE0464696F900003D68401E3070286C006840680078800902D205
:202E6C0010F008F902E0E92009F0E4FA98F90000002800F0CE8098F90000002800F3D3808D
:202E8C00C2E07A68D2680123137000240C7001680E6816B9D0F80C05804748460068019943
:202EAC00826C009890476949029ADFF8A4910B8814EA0B064FF0020606EA020108BF002983
:202ECC0031D121464FF0E246114016EA0B0608BF002919D14FF486012026114016EA0B0668
:202EEC0008BF00290AD1002876D0008840F60301814271D01D2009F09DFA6DE0019900987B
:202F0C005B46FFF79DF967E0464696F900004D46401E30702878862802D010F0ABF85BE087
:202F2C000EF03EFD58E0464696F90010DFF824C15246491E317043F20841994214700AD0D6
:202F4C00B5F87E2001F1020E9E4504D0914202D07146914212D178B1008843F6030181429E
:202F6C000AD006F00BFB96F90000002851D096F90000002857DC47E0B5F87E20B5F8F61088
:202F8C0043F60400884230D090422ED098422CD0B5F84E2040F60900904226D0B1F5505F01
:202FAC0005D0080B16D31D2009F044FA12E02A4800684E4600F5C070CCF81400307886280D
:202FCC0002D00FF0C9FA05E001990098029A5B460DF0B6FE10F012FF464696F90000C0B1AF
:202FEC0096F9000000281EDC0EE01C480078022816D0032814D006F0C1FA96F9000040B1FA
:20300C0096F9000000280EDC3868D0F84C05804709E03868D0F8582420460146904702E050
:20302C00204609F007FA7868C0680470BDE8FE8F140100206C2700206B2700207427002021
:20304C00E8180020C82200207838002082190020E3380020C022002028010021F9250020EA
:20306C00C5482DE9F04F3CC8ADF1240D69463CC11DC881E81D00C14CC14D04F1100700943D
:20308C0005F1540001978146029005F1340003958046049005F17C008346059005F11800EF
:2030AC0006900AF0E7FDB74E824600213022B460B54CF76004F58A7007460BF091F9BAF174
:2030CC000E0F16BFBAF11A0F302228223846494609F062F994F8201194F82A6101273846A7
:2030EC00182260F3C71167F3C71684F8201104F1340084F82A61294609F04EF994F84000D0
:20310C001822294667F3C71084F8400004F14C0009F042F994F8580004F1F40520224146FD
:20312C0067F3C71084F85800284609F035F994F800110020804668F3030184F8001194F8EE
:20314C00001167F3C71184F8001194F8021167F3C30184F80211102684F80361A4F8040190
:20316C0094F8070120F00F0040F0040084F8070194F807013022594667F3C71084F807019E
:20318C0004F5A27009F008F994F8500167F3C71084F8500194F852017C4B7E4967F3C300B9
:2031AC0084F8520194F8520167F3C71084F8520194F8530168F3000084F8530194F853016A
:2031CC0067F3410084F8530194F8530167F3C30084F8530194F8530168F3041084F853018C
:2031EC0094F8530167F3451084F8530194F8530167F3861084F8530194F8530168F3C710B2
:20320C0084F853011868D0F80001C089A4F85C0194F85E0166F3050084F85E0194F85F0137
:20322C006FF0030220F0F80040F0580084F85F01574B84F8622194F8630104F17C0B04267B
:20324C001C2266F3030084F863015846C4F8643109F0A2F8C4F8805094F888004D4920F020
:20326C000F0040F0030084F8880094F8880067F3C71084F8880094F88900032565F303001B
:20328C0084F8890094F88C0067F3000084F88C0094F88C0067F3C30084F88C0094F88C004E
:2032AC0067F3041084F88C004FF4207AA4F890A06FF0520984F88D9094F8920065F3030017
:2032CC0084F8920094F893004FF4FA531C2266F3030084F8930004F19800C4F8943009F076
:2032EC005BF8C4F89CB094F8A40020F00F0040F0020084F8A40094F8A40067F3C71084F8E9
:20330C00A40094F8A50065F3030084F8A50094F8A80067F3000084F8A80094F8A80067F310
:20332C00C30084F8A80094F8A80067F3041084F8A800A4F8ACA084F8A99094F8AE0065F3A5
:20334C00030084F8AE0094F8AE0068F3071084F8AE0094F8AF004FF4FA5366F3030084F8BB
:20336C00AF000849C4F8B0300798086105F0AEFF09B0BDE8F08FC046CC1A0000DC21002015
:20338C007011000008240020E81800201401002000C42264881100002DE9F04FAD4E4FF08D
:2033AC00000A8146ADF1140D57467069CDF808A0CDF80CA010B1804700B90B27F078002F13
:2033CC0040F0978096F8314096F832700146B9F1000FA1F101011FFA81F818BF01215546B1
:2033EC004FF0F80B86F83F1022E0AF421ED0F06869036A46042311F005F9009911F4403F1A
:20340C001CBF0AF101005FFA80FA01F0FF017C2918BF782909D1284606215A4610F09EFA41
:20342C000C2015FB006080F848B0F0786D1CEDB2A842DADC401E50455BD0B8F1000F06F177
:20344C00300500F0CF8003984FF4005B019096F83F30F06813B9012186F83F106A466103FE
:20346C00042311F0CFF8B9F1000F05D00099F07811F4403F40F09B80009800F0FF007028D4
:20348C0003D0204670210FF07BF9F06879036A46042311F0B7F8009800F0FF00FE2803D008
:2034AC003846FE210FF06CF938460621FE2210F055FAB800FE2300EBC700FF2186F83C7016
:2034CC00A200A6F840B0401986F83D4000F1180A8AF80030019B86F83E1002EBC400401925
:2034EC00A6F84430808BA6F8420000F093FC102801D10020AAE0B9F1000F0CBF102149464C
:20350C00B9F1000F07D0B6F84000C0F50050814207DC01200390B6F84000C0F5005081420C
:20352C0001DD782100E07C2138460FF029F905F0E3FD96F83F300446A8EB04000621FC22F4
:20354C001FFA80F8181B86F83F00384610F006FAFC208AF80000029A96F83210F0780919CC
:20356C0096F83E400C27891891FBF0F24243891AC9B286F83210491C91FBF0F24243891A93
:20358C0086F8311014FB0751898B102905D1611C91FBF0F24243891ACCB20198B9F1000FF3
:2035AC0096F83270029019D00398B8B11AE096F83F30641C94FBF0F1A8F101024143A6F8AB
:2035CC0040B01FFA82F8581E641A029986F83F00E4B286F83D40481C80B20290B8F1000F9F
:2035EC007FF435AF7C200EF02FFD0446FF2C1CD17E200EF029FD0446FF2C16D196F8314023
:20360C000C2014FB0050807DFF280AD0F27896F832008018401E90FBF2F15143401AC4B223
:20362C0003E020467E210FF0ABF80C2086F8334014FB0050808BF08696F83200FE210FF019
:20364C009FF8B6F84000C0F5005000B205B0BDE8F08FC046642100202DE9F04FDFF84C9294
:20366C0004460D460020ADF1440D01461F460D9016460E9183460F91D9F808A0CDF840B0B7
:20368C000AF0F8FA262803D00AF0F4FA252825D1308843F6070181420ED040F60201814250
:2036AC0006D0B0F5C15F19D1F07B022816DD43E0F07B022812DD3FE096F8240002280DDD65
:2036CC00307C0F2838D13169C1F31421B1F5803F04D00F2830D1B1F5A02F2DD1002D2BD063
:2036EC0056B328784FF0010808FA00F01AEA000F22D03046594611F043F865606C4DA66001
:20370C00A86980B110A800900DA90EAA0FAB304605F002FB0E980B214FF6FF7250230FF089
:20372C001DFCFF2808D011F023F882462878022804DB504653F07EF85C46B2E000286DD1EF
:20374C0002F0FCFF5B495C4E086840F00200086009A8C9F8006010F0F9FD584E5849707821
:20376C0009AA0B9005F1DC000DF020F8554905F58C7009AA0DF01AF809A810F0BFFD19210B
:20378C0009AB3078504A0A9005F15C000EF0E8F94E4A05F178001A2109AB0EF0E1F94C49FA
:2037AC005A4605F5AA7013460DF079FF49495A4605F5CC7013460DF072FF47480068C0F3A2
:2037CC00814030B1454A05F1300004215B460FF001FCB078012802D10E2007F075FA05F116
:2037EC009C0010F045FC05F1940010F041FC594685F82C1085F82010072085F84002A96223
:20380C00A960374B197085F82D100526E960354A2E6104206A620FF0EDFC287805EB800163
:20382C00401CC1F8B440C0B22870504653F002F81FB901A810F06CFC01AF38684FF4FA76AA
:20384C00E6602060B86941466062388A6175E082F869E062786800280CBF40F6C410594613
:20386C0020612148E06120622175A061F86800B1E061786900B12062B86800B1A061C822D6
:20388C0004F1300059460AF0ABFD04F1480059460FF0C6F915495A4604F1B00013460DF023
:2038AC00FEFE204611B0BDE8F08FC046CC210840A810002000200940110000E03C1D0000EF
:2038CC00193D010075A1000019FE00007DF100000D3601002D3A0100B44F0050D10B01000E
:2038EC0033320020159000001F8C0000E94601002DE9F84F07469A4D9A4C28684030D0F878
:20390C009410267891F883B026B1D0F80C0580472868403001680E6816B9D0F80C058047D8
:20392C00A1460120904C89F80000012F677040F2AF80DFF83882DFF838A2BF1E54D07F1ECE
:20394C003CD07F1E00F0C0807F1E21D07F1E40F0B6802968096C096891F86D20628191F8F8
:20396C006E70002F06BFE070071CE7706868406856460178307810FB01F0784381004046AC
:20398C00C16690F8701021F00F0141F0030156E0BBF1010F40F0AA802968D1F8D420096C87
:2039AC0009680020C98A6071C90934BF92F8251092F84E10A17010F011FD97E00026BBF172
:2039CC00010F66710DD12968D1F8D40090F85300D1F83C148847C07B022802D1304608F07F
:2039EC0089F80EF03DF881E062482F680668D7F8D40090F88300012824D09AF80000870013
:203A0C00F06B8047DAF804103C23401AB0FBF7F1B1FBF3F25A43891A227812FB03F0401A81
:203A2C003C301FFA80FAF06B804707FB0A014046C16690F8701021F00F0141F0020180F8CA
:203A4C00701053E09AF800008700F06B8047DAF804103C23401AB0FBF7F1B1FBF3F25A430C
:203A6C00891A227812FB03F0401A3C301FFA80FAF06B804707FB0A014046C0F8FC1090F8A3
:203A8C00001121F00F0141F0020180F800112DE0002029686071D1F8D400096C0968C98AC6
:203AAC00C90934BF90F8251090F84E10A170B7B9C078A0B10229C4BF0220A0700FE0286829
:203ACC00D0F84C05804711E02868006C006890F86910617190F86A00A0700027A77100F0A1
:203AEC000BFC2868006C0068002836D02248007898B92868403001680F682FB9D0F80C054D
:203B0C0080472868006C07687A686178107800F0200020719078E07100E06178032903D072
:203B2C00022918BF062918D110F022FE617802290CD01249097811B91149097831B10221D9
:203B4C0089F8001052F076FEBDE8F88F832189F8001052F06FFE0AF04DFABDE8F88FC0468F
:203B6C0014010020E3380020F8250020E8180020A8250020C822002032320020DE380020BB
:203B8C00E038002030B50546EC6B00217022ADF1740D68460AF024FC14F8010B8DF8000023
:203BAC0021680DF1010001606168083441602078617810F075FDA41CADF80A0041080FD3ED
:203BCC002078617810F06CFDA41CADF80C002078617810F065FDADF80E00BDF80A00A41C89
:203BEC00810808D32078617810F05AFDADF81000BDF80A00A41CC1080FD32078617810F03D
:203C0C004FFDA41CADF812002078617810F048FDADF81400BDF80A00A41C0109C0F0AA8003
:203C2C002078617810F03CFDA41CADF816002078617810F035FDA31CADF8180018785978D3
:203C4C0010F02EFD9A1CADF81A001078517810F027FD931CADF81C001878597810F020FD55
:203C6C009A1CADF81E001078517810F019FD941CADF820002078617810F012FDA41CADF8FE
:203C8C0022006178207810F00BFDA31CADF824001878597810F004FD9A1CADF8260010788A
:203CAC00517810F0FDFC931CADF828001878597810F0F6FC9A1CADF82A001078517810F091
:203CCC00EFFC931CADF82C001878597810F0E8FC9A1CADF82E001078517810F0E1FC931CC2
:203CEC00ADF830001878597810F0DAFC9C1CADF832002078617810F0D3FCA41CADF8340044
:203D0C006178207810F0CCFCA31CADF836001878597810F0C5FC9A1CADF8380010785178BE
:203D2C0010F0BEFC931CADF83A001878597810F0B7FC9A1CADF83C001078517810F0B0FC87
:203D4C00931CADF83E001878597810F0A9FC9A1CADF840001078517810F0A2FC931CADF8E1
:203D6C0042001878597810F09BFCADF84400BDF80A009C1C410910D320786178A278E3788A
:203D8C0010F074FB241D12906178A2782078E37810F06CFB1390BDF80A00000A28D3241DD0
:203DAC0014A9062014F8012B401E01F8012BF9D12078617810F074FCA41CADF8560020785B
:203DCC00617810F06DFCA41CADF8580014F8010B8DF85A00002007E014F8012B0DEB0001A9
:203DEC00401CC0B281F85B209DF85A108142F3DC0649074C486F401C486720680FF0F0FE8B
:203E0C0028460BF08DFE1DB030BDC046E41F0020C81D00202DE9F04F994E96F83D0096F825
:203E2C003F10F37896F83C800027ADF12C0D0918491E91FBF3F296F83D4077705A43891A49
:203E4C00C9B20891810001EBC0018919B1F84C0096F83C10ADF81C00880000EBC100801915
:203E6C00B0F84C50CDF8248006A80DF051FF70780A97A04500F0A180B946CB46BBF1010F43
:203E8C0000F09080BDF81C10162966DD002840F09580BDF81C0001AAC01F81B2ADF81C10E7
:203EAC00204608F057F8BDF81210BDF81C30884608F1070008F1100287B29A4246D89DF8D0
:203ECC000E00962842D19DF80F00420839D2800837D3BDF81C0000230093A0EB08001FFA39
:203EEC0080FA9DF80D20BDF81C002346401A80B20EF048FAF8B9E819B0F5005F15DCF06875
:203F0C00C5F188520AEB443A3B46D21B514602F5005210F077FBED1909F10109ADB2B5F5BF
:203F2C00005F08BF4FF0010B0BE0BDF81C004FF0010BC01D2EE0BDF81C00401EADF81C0022
:203F4C0004E0BDF81C00A0EB080023E0204607A90BF042FA01281FD030E0F278B9F1000F72
:203F6C0007D0484BBDF81C70A10001EBC401C9188F830899A14220D04249641C94FBF2F055
:203F8C005043241AE4B2A00000EBC4004018808B4FF00009ADF81C0009997078A1427FF413
:203FAC006DAF0AE0B9F1000F07D0364ABDF81C70A10001EBC40189188F8320B106980FF02B
:203FCC0075FE102059E0DDF824804FF6F0704FF40051C5EA0040C5EA0141E1FA40F01FFA43
:203FEC00A0F283B2102102F1885240460CF086FF71780843707006980FF058FEA0450FD11D
:20400C00F278204F1019401E90FBF2F15143401AC4B2A00000EBC400C019808BADF81C006E
:20402C00184FBDF81C00A6F840504FEA8801A6F8440001EBC80186F83E40C9198D83B6F918
:20404C00422096F83D10012340460EF0AFFF96F83E10B6F94420022340460EF0A7FFBDF8CE
:20406C001C001628DCBF01200A90B5F5005F03DB0A9840F002000A900A980BB0BDE8F08FAE
:20408C0064210020942100202DE9FE4F8B46054610F06EFB904C012D029000F0E080204660
:2040AC000068D0F838038047002800F0D3800CF027F9002800F0CE8021464968DFF830A214
:2040CC008969DAF808000F783C30002F40F0C280824C0068257880476168E268AF00401ABE
:2040EC00B0FBF7F6A06890460027B946114646454B4673EB090301DA884206D839464A46A9
:20410C0086428A4140DA024600E039461046EB172A46801BB9410FF0D1FE064675480068A3
:20412C000F46C18A00694018643080464FF00001B6EB080677EB09077042B94124DA10F0AD
:20414C00B7F902464B46394630460AF0C3FD0F4606464FF000017042B94115DA0FF04DFD56
:20416C000546206910F0BAF810B1206910F0ECFA28460FF027FF2069314610F0E1FA206986
:20418C0010F0E0FA002000E0012055490870884698F8000000285DD14F480068D0F89400F3
:2041AC000078002739460BF07BF900B10127381C4DD149480068D0F8D400474E90F8837076
:2041CC00706880690078002841D1DAF80800454C436C606902216A4698479DF8000000280E
:2041EC0035D0BBF1010F4FF0010921D03E4EDAF80820606996F9001011F1020F06D0926BE4
:20420C0096F900109047DAF808206069374D95F9001011F1020F06D0926B95F900109047DC
:20422C00DAF8082060696FF001012970317002E0DAF80820606928494968896981F8009052
:20424C00D1698847012F04BF00208AF80000002088F80000029852F0EDFABDE8FE8F206897
:20426C00D0F89400007801210BF01AF9029852F0E1FA606880690078012811D10FF020FA2A
:20428C0060B1606880690178012909D10021BBF1010F017004D00FF0D5FD01E007F06CFD9F
:2042AC000FF00EFAB0B960680C30C1680978022909D101680F7837B12068D0F84C0580478F
:2042CC00241D20680C3001680F781FB9C16808780228FCD0BDE8FE8F14010020A825002012
:2042EC00E1380020082400206827002069270020C02200201C2400202DE9F84F8C4E4FF0F6
:20430C0000088C4C30688DF80080D0F8D400A57890F883B010F09EF94FF0010A4FF6FF710A
:20432C000AFA05F28918014030686181D0F8B800824D077847B3826B32B342F21A00694683
:20434C0090477D4867790378C3B1BFB99DF80030A3B13068D0F8B800C06D78B1804729787F
:20436C00071C0AD07068406863890078083010FB01F0B7FBF0F15818608167799DF80010B3
:20438C00608907FB010060816078002840F0B3806B483768016807F1D4000268DFF8A491E4
:2043AC0092F88320012A33D0D0F888018047A1782A78002800F09B803368A9F8E280D3F827
:2043CC00D43093F8314089F8E44093F8243089F8E53099F8E63043F0200389F8E63099F892
:2043EC00E6305043800023F01F0343F0020389F8E63099F8E630C9F8F00068F3871389F8B6
:20440C00E63089F8E78089F8E81089F8E98074E0C86B804704460AF003FD0746287881002F
:20442C0007FB01434C4604F1A40210784FF0020C6CF3030010707068C4F8A030406894F8AE
:20444C000021007868F30302083080B201FB003194F8883084F80021604660F3030384F864
:20446C0088303068C4F88410D430016891F8831001293CD1D0F888018047C0B36868D4F8A9
:20448C008410884233D294F8A400042368F3030084F8A4002A787568C4F8A08012FB03F07D
:2044AC0001B2686894F888300078083080B2414323F00F0040F0030084F888004FF4FA55D8
:2044CC00C4F8841094F88C00A4F89A8040F0080084F88C0094F88C00C4F894506AF3041049
:2044EC0084F88C0007FB02F00EF076FC05E01C2007F0A0FF01E002F08DFABBF1020F14D191
:20450C003068006C006880B10F481149007848B90E48007830B983220846027009F06AFD4C
:20452C00BDE8F88F022208460270BDE8F88FC04614010020F825002032320020A82500204A
:20454C00C8220020E8180020DE380020E0380020E33800202DE9F04F904DA868416EADF1ED
:20456C002C0D02A88847A8468D4C8E4DA178606902290FD170B1002006F01AFED8F80800C7
:20458C00416860698847281D0068806901210170002060614FF0010A002684F802A000280E
:2045AC0005964DD109F066FB002837D009F062FB012833D009F05EFB05282FD009F05AFB5F
:2045CC000C282BD009F056FB0D2827D009F052FB0B2823D009F04EFB0E281FD009F04AFB19
:2045EC0017281BD009F046FB192817D009F042FB1A2813D009F03EFB1B280FD009F03AFB46
:20460C001C280BD009F036FB142807D009F032FB152803D02868D0F84C058047D8F80800B4
:20462C0000F1200130B92868D0F84C058047D8F808102031096804F1200088475148E06399
:20464C000EF020FE2968D1F8D40090F85300D1F83C14884707462868D0F8D40090F94200FD
:20466C000BF0CEF9B0F1FF3F05D0010828BF4FF6FF704549088038897968DFF810913B6841
:20468C0032464FF47A7BA9F81661401EC9F81821414303EB5100B0FBFBF0A9F8340199F82E
:2046AC0021016AF3030089F8210199F820016AF3C71089F820012868D0F8C4038047F8B9AA
:2046CC00B88933496F68BBFBF0F0C0B208707968BBFBF0F008702868D0F8D40090F85300C4
:2046EC00022806D00DF09CFE032809D105215C2001E00221A820274A1170696809680870F8
:20470C006769D8F80860A168DFF88CB03FB3002006F04EFD2A68D8F808106069D2F8D42015
:20472C00637892F853200F4693420AD0496888476868806980F800A0D8F80800A1680668F1
:20474C000EE0022100228DE806003F6D09F58A76002302AA3146B847C8F80C6008E03668FE
:20476C0009F58A7904F1200358464A46B04760612868D0F8D40090F853000BB06070BDE8F7
:20478C00F08FC04654F10080161A0020E8180020A8250020F8250020182D0020C0220020C2
:2047AC0008240020140100202DE9F04F7A4CA068416EADF12C0D02A88847DFF8E0A1DFF81B
:2047CC00E0B19AF9000038B1594691F90000002818BF002040F0DC800FF0CAFFDFF8C491F8
:2047EC000A9099F80000800806D27D20002106F00DFA0025079001E00025079502958DF8ED
:20480C000C50059503208DF81800DFF89C81C8F87C51A8F8765198F88F7198F88011634B8F
:20482C00012665F3030166F3000788F8801198F8801188F88F7166F3C71188F8801198F805
:20484C008F1166F3410188F88F1198F88F1165F3820188F88F1198F88F1165F3C30188F8FA
:20486C008F1198F88F1165F3041188F88F1198F88F1160F3461188F88F111868D0F8282441
:20488C0008F5C871F4209047494807789FB94846A768007880090FD3F86B8047C8F87C019C
:2048AC0098F8801121F00F0141F0020188F880118DF80C600290A7683F4A3E484FF0807392
:2048CC008DE80C003F6D3D4B006808F5BA79494602AAB8470028608006D5022041F2883154
:2048EC000AF074FE2E464FE0594691F90000344F401C087097F90000401C38709AF90000F6
:20490C00C4F80C902946401C8AF8000002200AF05DFE264F26483968057001F1AC0210685E
:20492C00077807B18025B4F84C0017684FF67F7303401D432843A4F84C0098F88C213878FE
:20494C0060F3C71288F88C21D1F8D400C28CA4F85A20428D00F14403A4F858201A6804F15F
:20496C004F052A6058686860D1F8D400C18CA8F8A611418D00F14407A8F8A4113A6808F586
:20498C00CE742260786860600A9851F053FF30460BB0BDE8F08FC046C02200207627002058
:2049AC0075270020DF380020E8180020140100206D2700201C240020200043004D220000BD
:2049CC00742700202DE9F04F744C734FE06807F5A271ADF12C0D814207D1714890F900002E
:2049EC00002818BF002040F0D4800FF0C1FE0025DFF8D4810A90D8F80000A7F84651D0F891
:204A0C00B8000078002807BF4FF4860AAB4670A090E8000CA068416E02A888470320614E12
:204A2C008DF8180030780595800807D27D20294606F0ECF88DF81850079000E00795C7F885
:204A4C004C51594B97F85001584AC7F8643165F3030087F85001E3685069B44607F13406D8
:204A6C0007F134019E420CD0B7F84420B0F840309A4206D1B7F84220C38F9A4208BF5149C3
:204A8C0014D0504EFD864A4BBE6301221A7097F8412022F00F0242F0020287F84120FD6319
:204AAC0097F8402065F3030287F84020DFF8049199F800700E4617BBD8F80010D1F8B810BB
:204ACC000F781FB99CF80010890918D33A490F7837F07F0713D139490F7887B9A068C06B33
:204AEC008047B060307B012720F00F0040F002003073B0688DF80C702C4B02905869A16820
:204B0C000F6D2F4B02AA8DE8000C3146B8470028608009D50A9851F08DFE022041F288318E
:204B2C000AF054FD284634E01D49284F91F90000244E401C087097F90000E6602946401C4E
:204B4C00387002200AF042FDD8F80000AC3001680F7889F8005007B18025B4F84C10806A8A
:204B6C004FF67F720A4015432943A4F84C10C18CA4F85A10418D00F14407A4F858103968EB
:204B8C0004F14F063160786870600A9851F052FE01200BB0BDE8F08FE8180020C022002029
:204BAC0075270020DF38002000C42264082400206C2700206D270020E33800200B3400205F
:204BCC004D2200002C1A0020140100207427002000004F8C200000012DE9FE4F9B46154669
:204BEC00894682460FF0C4FD7B49019008680CAF504508BF48687B4C6FF0010828B1B030DE
:204C0C000FF06CFB002840F0D6800EF0E1FA061C00F0DB8004F5CC700FF096FD0023B4F997
:204C2C00B000C6F80C90401C86F832306FF31F30A4F8B000C6F808B0B4F8B00030866748EE
:204C4C00C6F810A097E80C0020210027B8461940104006F1180383E80300424686F8332067
:204C6C0006F1200383E88001E8683064287C86F8440028687063287986F83800A868F063BB
:204C8C006869B064A869F064287F86F85000687F86F851002F7C27B9EF6817B1012086F84A
:204CAC0044002F795FB999F80C0000F00F00022805D1012086F83800D9F808007063484637
:204CCC0008274568002D18BF002F70D100886FF30900B0F5305F18BF022506D196F83300BB
:204CEC00082540F0100086F8330006F1180090E80C00414606F1180745EA0200194387E85E
:204D0C000300D4F8D400824507D194F8D800410824BF00F0FE0084F8D80031480768002F5C
:204D2C0039D004F19C000090D4F8A410D4F8A82004F194052B463046B84710F1030F10D0C2
:204D4C00B6F93010B4F9B020914207D0B4F9B01001F6FF716FF31F31A4F8B01010F1020F3D
:204D6C001BD010F1030F18D096F83300B6F9308040F0800086F8330000278AF8F470286823
:204D8C00864205D0F068007B00F00F0002281CD10AF010F819E06FF00200B4F9B0108046F2
:204DAC0001F6FF716FF31F31A4F8B01005E07F1E2846FFB285E76FF0020894F8D80040F068
:204DCC00040084F8D800C4F8D4A0019851F032FD4046BDE8FE8FC0465C110020FFEFFF9F5F
:204DEC00AC270020A81000202DE9F0470646F08917468946ADF1280DC01D80B2054607F07A
:204E0C0079FD7A4CFF280BD12846FEF7C5FA854204DD641C207800B90520E3E0012000E0C3
:204E2C0000206178D9B917B1022F18D1B8B1307A8DF80C00F788ADF80A70B588ADF808507D
:204E4C0000230093E18E94F8330001AA032302F051F99DF814003074BDF81070B78194F80F
:204E6C003310E58EE06806AA0423884649030FF0C9FB069800F0FF0100F0FF007E2806D17A
:204E8C0040467C210DF07CFC069901F0FF017C2940F0A580F08942F20102C11D8FB2E91913
:204EAC008A4240F39A80F188327AC1F301238DF81D10B18843EA82038DF81C308A1006467C
:204ECC008DF81E200423C0F3851201F0030142EA81128DF81F2010FB03F1F21D01F0FC011E
:204EEC00731990B28DF820101FFA83FA0D282BDB4846314600220FF0F3FA0246052107A822
:204F0C000FF0EEFA9DF82010334600F03F064A4641EAA011B0008DF8201040F0020096266C
:204F2C008DF8210029468DF8226040460BF0E6FF0646514607AA0723404666700BF0DEFFF1
:204F4C00304360704DD135E004F124004946324607F022FA07A90A68301900F12409484685
:204F6C0009790260731D0171002204F1240099B20FF0B6FA9DF82010962300F03F068DF8D2
:204F8C00223041EAA011B0008DF820103B4640F0020007AE49468DF821003268B0790A60A8
:204FAC00B288887140468A8004F1240229460BF0A5FF6070E18EED194FEA8806AAB2C919AF
:204FCC00E18606EBC8010919A1F84C2048B1404651460BF0ABFD607803E0052000E00120E3
:204FEC006070C0B20AB0BDE8F087C046642100202DE9F04F8246ADF11C0D01F09FFB6948C2
:20500C00007808F037FE684C002615280DDC152814D0012821D90C381FD0401E24D0401EB8
:20502C0001280BD9401F09D012E0173815D0801E1AD0401E18BFB0F1020009D10EF01EFEA5
:20504C00022807D00EF01AFE012803D00EF016FE21680DE005211F2608E00EF00FFE022821
:20506C00F6D101210E4601E003210726204601604E4AD068C0F38150012804D11268012001
:20508C00120E904006430FF025F8DFF828B1DFF82081FF2240185B46401E471CC8F80000EC
:2050AC007F1E03F8012BFBD1DAF80020002702F0FF03FE2B1CD0D4463B46012502F0FF047C
:2050CC00FF2C0ED0A04205D3A14203D805FA04F4264201D0022062E002F0FF0227430BF84F
:2050EC0002305CF8042F5B1C02F0FF04FE2CE7D1092005F0E9FD3048C0F800A02F48012130
:20510C000DF08EFD364C00254FF00109A84609FA05F0064214D1074207BF05F0FF0141F4BF
:20512C00C0411BF805005AF82010254803F0CCFAE8B24FF0FF310EF043FAC4F8008001E041
:20514C00042020601A4800686D1C241D8542DED904A80FF0D3F81B4C20781C4A05901A48BB
:20516C00102104AB0CF0FCFC68460FF0EFF86068184902901648CDF80C806A460BF016FB95
:20518C00154951F80D0C20F4F85040F4005041F80D0C124AC1F8FF9F4046C2F8009007B0D7
:2051AC00BDE8F08F0A340020B8270020A84F0050B427002070360020B03800208832002078
:2051CC00007FC767BC1D000008370020BD3901008C340020D11401000D3009402C00094026
:2051EC003C3100202DE9F04F754C0646A068D0F80001807AADF15C0DC00007F055FE0028B0
:20520C000C9008BF1A2400F0D6804FF0010AF07D8DF848A006F118018DF849000A680DF129
:20522C004A073A604A687A60097A39720FF0A0FA1590A068D0F888240DF146018120904746
:20524C00B07D00283DD004208DF803A04FF000088DF80400B78A8DF80280A568ADF800705A
:20526C00D5F894246946D22090474FF6FF79C34645461DE0C00043F800B0B18AC018818018
:20528C00DCF80020D42008A9904702E04846ADF804008DF80780B08A8DF806803B68ADF8E0
:2052AC000000D3F894246946D12090476D1CADB204F108073A6802F580721068C088A842C7
:2052CC0036DCB08A00279DF84920ADF838000DF14A018DF83A700DF13B0007F05DF8A0686F
:2052EC00D0F894248DF844A00EA9D0209047071C18D1B08A31461022ADF808000DF10A0097
:20530C0007F04AF83069A7680790D7F8942402A9D3209047071C02D10C9838B104E00C9802
:20532C0020B101E00C9808B10CF01AFAFCB23FE0ADF80250B08AADF80000D2F8882369467B
:20534C00D12090470028A1D1BDF8040081459DD0ADF82000A068D0F8882408A9D420904736
:20536C0004F1080718B10C9808B303461CE0386804F108073B6800F2944CD3F8000190F843
:20538C000AE00C9B404601E0401CC0B2864507DD03EBC0018988894502D0B28A8A42F3D160
:2053AC0086457FF467AF13B118460CF0D9F91924159851F03FFA204617B0BDE8F08FC046E2
:2053CC000C0100202DE9F04F724C002704F19400ADF1140DB946B846056802978246CDF882
:2053EC000C903DB3D4F8A800B84203D1D4F8A400B8421DD0D4F8A4600EB3D4F8A4102869DA
:20540C00096988421BD195F83300400917D3D4F8A860A6B90127D4F8A400C0684088002882
:20542C00F9D0D4F8A400C06840880128F3D006E0012704E004F1DC0002210FF0AFF9002D91
:20544C0043D087F0010B03A802AA594608F026F85FEA000809D0012F07D0039929B104F5FE
:20546C00AA700EF0BAFD4D462FE0002D2DD04A48066856B3B8F1000F27D0039828BBCDF88A
:20548C0000B002980190D4F8A400D4F8A8100AF108035246B047401E02D0401E08D014E042
:2054AC00029800B9284601214B460091014605E001230093D4F8A400D4F8A4100069B1F9F5
:2054CC0030104A4602F0DEFB60E0002F5ED0002D5CD060682969884252D1B8F1000F0BD055
:2054EC00039848B1D4F8A40030B9D4F8A80018B908200CF061FF49E008200EF0BBFA95F859
:20550C00330004F1DC06C0F3001028B950460DF0B3FFC4F8A40004E050460DF0ADFFC4F84D
:20552C00A800A8691D49C0430860A8694A6810434860E869C04341F8080CE86951F8042CAC
:20554C00104341F8040CEC68082029460DF052FE20460DF02BFE2088A0F6020040B141F27B
:20556C001E01401A04D041F6E671401A012803D8012021460DF03EFE4FF08041304603E0CC
:20558C0004F1DC004FF480610FF008F905B0BDE8F08FC046A8100020B027002010100440F8
:2055AC002DE9F04F684D804605F108000068416EADF14C0D02A8884768490A68D4321068E9
:2055CC0090F883906648DFF874B10778002F00F0A6806448077837F07F0740F0A0805648F0
:2055EC000778002F40F09B80BBF81600544CB9F1010F00F10100ABF816000AD00020059049
:20560C00E06694F8703060F30303012084F8703019E0C4F8FC8094F8000120F00F0040F069
:20562C00030084F8000194F80031012060F3C71384F800310027C4F8F87094F8013160F3CA
:20564C00030384F8013149683E4BC96818700F781FB9D2F8842300219047B9F1010F01D143
:20566C000CF046FF0FF084F8A84604F164071290DFF8D8A0D8F80810F87BB9F1010F11D02D
:20568C000025A4F86650294605F0C0FA0790D8F80800066D5246294608208DE80300106868
:2056AC0002AA15E0496E0AA8884704F1F4070025388A0D95294605F0A9FA0F90D8F808000E
:2056CC00066D5246294602208DE8030010680AAA1F4B3946B0471F495A460880118B00284A
:2056EC0013D4154883211C4F017097F90000B9F1010F00F10100387014BF6434F434C8F8A3
:20570C000C40129851F096F812E0491C88B22F461083134912980F7051F08CF806E0104996
:20572C005A460027108B0F70401C10830EF004FA13B0BDE8F08FC0460B340020F825002008
:20574C00E81800206B270020C02200201C2400205DB00000002700207427002014010020C5
:20576C00E0380020E3380020F8B5694C2168054614310868407F002800F0C880D1F8C00017
:20578C00B5F84220C08C904240F0C080D1F8581305F128008847002800F0B88020684069BE
:2057AC000026467721687031486E90F8290028B16068816A0220884721687031086890F8CA
:2057CC002B0018B16068816A01208847287C400908D36068816A102088472068D0F8281321
:2057EC00802088476068C16B202088472168C868D1F8FC14103088476868226841785269BC
:20580C00007800EB0120C0F30321517622685269C0F3003797762268526900F00F03C0F324
:20582C00031793772068D0F8D40080F82C7022680C32D2F8C81091F84F000F2806D09368B6
:20584C009B7F984202DD6B68DF780FB19068807F4873106880F83060D2F8C800417B0F29C7
:20586C000BD19068C07E022850D1D2F8580180472068D0F86C018047F8BDD2F8002528463F
:20588C00904723680C339868C07E022815D1D3F8F014186888472268D2F8D4001169467B8C
:2058AC00D06831F81630D2F8F0244FF4707707FA06F1C91A904723680C33D3F8C8002A896B
:2058CC00D3F8A83190F82C1002209847206800F11401D1F8C020D0F8D400527B90F82C00FF
:2058EC0082420FD00868D1F8E81488472268D2F87C015169886050694169D2F8F02490476A
:20590C0021681431D1F8141310208847F8BDC046140100202DE9F04FDFF898910646A9F193
:20592C00080000F108078068D0F80001807AADF12C0DC00007F0B8FA0028089008BF1A25A2
:20594C0000F0B4800EF014FF00244FF0FF0B25460A9027E0ADF800608DF80240D2F888234C
:20596C00D02069469047D8B99DF80C00012802D19DF80B1019B998B99DF8071081B100289E
:20598C0014BF082304230DF103005B1E00F801BBFBD105703868D0F894246946D0209047D1
:2059AC00641CE4B23A6802F580721068C07AA042D0DC4C462068D0F80001C0884FF6FF7813
:2059CC00AA461DE0089901EBC0018A8896421CBF401CC0B261D1C1F800A0A1F804803A68A3
:2059EC00D42004A9904702E07F1CBFB225E020682268D0F800016D1CEDB202F58072C088FC
:205A0C00A842D8BF55464BDDADF80060ADF80250D2F88823D120694690470028E7D1BDF8B9
:205A2C0004008045E3D0ADF810002068D0F8882404A9D420904790BB5746226802F580725A
:205A4C001068C088B84210DDADF80060ADF80270D2F88823D120694690470028C4D1BDF819
:205A6C001000BDF804108842BED12068D0F80001C088B842BBD1ADF81480ADF8168006A8A7
:205A8C005946082208F0ACFC2068D9F8003000F29447D3F80001837A5046834292DC19256B
:205AAC000A9850F0C7FE08980BF05AFE28460BB0BDE8F08F140100202DE9F047644E044675
:205ACC009246306894F83080D0F888240F469946ADF1300D0DF10E018B2090473068D0F89C
:205AEC00882401A98A20904794F82500002840D1B8F1000F1AD1BDF80E104FF6FE708842E6
:205B0C0006DCBDF80E10884240F09C8001A916E0B4F844009DF80E508DF8100000128DF8FF
:205B2C001100BDF80E008DF812501CE0B8F1020F0AD0B8F1030F40F0858004F1280104A854
:205B4C000EF054FB092512E0207CC00934BFB4F84200B4F844008DF8100000128DF8110059
:205B6C00208D8DF81200001205258DF81300002015E002280CBF05250925012818BF04F1AA
:205B8C001C0106D13068D0F8882407A98920904707A904A86A1E06F0FFFB94F826000DEB4B
:205BAC000501C8733068D0F898343A46294604A89847002846D1B8F1000F19D1BDF80E103E
:205BCC004FF6FE70884205DCBDF80E10884239D101A915E0B4F844009DF80E508DF8240089
:205BEC0000128DF82500BDF80E008DF826501BE0B8F1020F09D0B8F1030F23D104F12801C4
:205C0C0009A80EF0F3FA082212E0207CC00934BFB4F84200B4F844008DF8240000128DF84A
:205C2C002500208D8DF82600001204228DF827003068D0F8A444CDF80090386809A953466F
:205C4C00A04708B1F32000E000200CB0BDE8F0871401002001282DE9F84F40F0B080DFF8BB
:205C6C008491D9F83401012840F0A6800220C9F834010DF0ABFE01200CF0AAFA5FEA0008AE
:205C8C0005D00120C9F834010DF0AEFE99E011200EF04AFC00280CBF0025012510200EF009
:205CAC0043FC08B145F002050F200EF03DFC08B145F00405444CA06A00680146012088470E
:205CCC00012805D099F83801012818BF002703D1002002F03BFA01270EF020FCDFF8ECA009
:205CEC0040080AD20026206A80680146504688478346BBF1040FF6D000E001263046002144
:205D0C004FF0FF3201F04AF9012E0ED0BBF1010F05D1206A406801210246504690473249B0
:205D2C006C39086840F003000860206840690146284688470B200EF0F7FB254E30B12068FB
:205D4C00C06A3146091D0246088890470A200EF0EBFB28B12068C06A314602460888904702
:205D6C001C4903200124C9F834011B4E0C600023336028460AF0B4FE0128FAD1174D2868E7
:205D8C0004200CF025FA0646154804602868012F02D1204602F0DAF90EF09CFB08200CF034
:205DAC0017FA0746C9F834410DF01EFE57EA060018BF4FF0FF3804E06FF0040801E06FF007
:205DCC0001084046BDE8F88FB801001000400340C2170000282008600C2008402C2009401E
:205DEC000C400940241C0020902208402DE9F04F634C8346A4F10805A868D0F80001807A66
:205E0C00ADF12C0DC00007F04FF808900EF0B0FC0A90A86800F59162D0F8000100894FF636
:205E2C00FF790026C846CA4636E006AF5946082238460DF0A5FB78B92068D0F81C153846BB
:205E4C00884700283AD02068ADF80490D0F894246946D120904731E0ADF81480ADF81680F8
:205E6C0006A8FF21082208F0BBFA2068D0F8942404A9D42090472068ADF804A0D0F89424A0
:205E8C006946D120904720682268D0F80001761CB6B202F591620089B04208DC0A9850F07F
:205EAC00C9FC089808B10BF05BFC002064E02068D0F80001C07A0127002531E02068D0F8C9
:205ECC0000012268C0886D1CEDB202F5916230E0ADF800608DF802501268D02069469047F5
:205EEC00A8B99DF80C00012810D19DF80B0068B90DF102020820002112F8013FFF2B03D136
:205F0C00401E01F10101F7D10829BCD0002720682268D0F800016D1CEDB202F59162C07A50
:205F2C00A842D5DC002FAED12068D0F80001C0880025A842A7DDADF80060ADF8025012686A
:205F4C00D120694690470028B8D1BDF804008045B4D0ADF810002068D0F8882404A9D420B9
:205F6C00904700283FF461AF0A9850F063FC089808B10BF0F5FB19200BB0BDE8F08FC04630
:205F8C0014010020F8B5074661485F4C001DC26A0168B7F5C067C2F30722C4F81071C1F31E
:205FAC008441C4F81421C069C4F81811C0F38120C4F8280100F0A38094F830616EB9C4F8C5
:205FCC002C71D4F81801C4F82001D4F81461C4F81C61D4F82851C4F82451D4F82C01D4F8A1
:205FEC001451002854BF02236FF0010304F59072116800EB4000C018431000EB937001EBC9
:20600C00A0011160D4F82011C4F81C5100291CDD1E293DDDD4F8240130B93429B4BF1539C1
:20602C001E21C4F8201125E02A29BABFD4F820010B381E20C4F82001D4F81C013E28D4BF2A
:20604C00401C3F20C4F81C011FE0D4F82401032812D011F10A0FA6BFD4F820010B300120DA
:20606C00C4F82001D4F81C010028CCBF401E0020C4F81C01032009E011F1140FA6BFD4F8E2
:20608C00200115300120C4F820010020C4F824014FF08057D7F8A401B4F81C111B4D40681C
:2060AC004FF47F4208230646009128463021B047D7F8A40101214FF400321123406800919A
:2060CC00064604212846B047D7F8A401B4F8201140684FF4F8021223064600910421284603
:2060EC00B047D7F8A401B4F8241140684FF440620A230446009120212846A047F8BD002048
:20610C0084F83001F8BDC046241C002000A00C4000A00C402DE9F04704460020ADF1200D51
:20612C005E4D04908046059004A905AA06AB286894F82470D0F8A864CDF818802046B0476E
:20614C0000284FD1049A666960682389AA46311AAAF10805581A1FFA80F91AB9A868D0F878
:20616C004C058047A868B4F85C30D0F8B0C400930196CDF808900598001D03900498A169FD
:20618C00A36D3A461530E04760BB05F10806336803F5867318682289395C501A94F8602016
:2061AC00208132B1D3F8001220468847336803F58673A68906F00706032E02D1606800783B
:2061CC00E073D3F89033E27B384631469847DD2810D00746A868D0F8AC34E27B0498314647
:2061EC00984708B1C1B231E00598007C464620B9DC2F02D1DD20014628E0A069B0F1FF3FE7
:20620C0004BFDB2080461FD0A868D0F88C2407A97120904755462868D0F8000103892C278C
:20622C00304601E0401C80B2834211DC0598A169C368F200491CD150C0681058B0F1FF3F02
:20624C0002D106980121C17040464146607020E00799049A07FB00119142E3D12968D1F85F
:20626C0000118A7A464601E0761CF6B2B24206DD0599C96801EBC60189888142F4D1B24270
:20628C0006D00599C968A26951F836109142C9D9DB2108B00846BDE8F087C04614010020E5
:2062AC002DE9F8435F4CDFF868815B4DD4F83C0100286ED0574E401E0AD0401E60D0401E36
:2062CC001CD0401E53D0401E1AD0401E33D02FE04E4801250221006884F83A517022042386
:2062EC0040680091002107464046B847356004F150000EF027FA2846BDE8F883022100E0DC
:20630C0003214FF08059D9F8A40184F83A1140680025702204232946074600954046B8479C
:20632C00D9F8A401C0687022294613460125DAE70320BDE8F88300262E606E602868800895
:20634C00FCD268688008FCD2374834490127001D06600E200F6004F01DFA02200CF058FA7E
:20636C00C4F83C6184F83B610220BDE8F8830520C4F83C010027376030688008FCD242E072
:20638C000320C4F83C010027376030688008FCD239E0234F01260F202E6042F62A21C7F878
:2063AC000B004FF08059C7F80F10D9F8A40140684FF4C072072302218446404600910021EE
:2063CC00E047D9F8A401C06800214FF4C072072384464046E0472E6028688008FCD394F8B4
:2063EC003901C7F81B6018B9032100200E4602E0002028630321C4F83C6147F8011C686086
:20640C0068688008FCD20020BDE8F883A401001000A00C4058600C4054600C4004800C4095
:20642C0001400C40241C002038500C402DE9F0475B4F814607F108000068416EADF1280DE7
:20644C0002A88847524D2A6840321068006820B9D2F80C0580472A6840324E484FF00108D7
:20646C006E6880F80080F068007830B9D2F818244046002190472A684032106801684C686C
:20648C00088921788246C1F3401104F0BFFB079007F0E8FE404E746786F873A00024A6F81B
:2064AC0066400EF065F9059482463146B9F1010FA6F8664004BF3948C1F8F00039F00109D8
:2064CC003E4643D18C66A1F8D64001F16400C1F8D80091F8713091F8E12091F8EB700220D6
:2064EC0068F3030360F3030281F8E12091F8E02081F8713064F3030281F8E02027F00F02BD
:20650C0042F0040281F8EB202A6840321268126853681B7801F164079B090CD301F1200378
:20652C008B665268927891F8715081F82E2060F3030581F8715001F1100001F1D402426088
:20654C004A7F64F303024A77014601E064310F46B068144A056D08238DE81800124B1068C2
:20656C0002AAA84711490028088006D4104991F90000F760401C087004E0404641F288312C
:20658C0009F024F8504650F055F90AB0BDE8F087140100206B270020E8180020801A060039
:2065AC00C02200201C240020212D000000270020742700202DE9FC418046D8F80450D8F810
:2065CC000060287869460DF091FE28780CF0B2FC96F82410002781424AD03079401E28D065
:2065EC00801E1FD0801E012803D9001F14D0801E35D1307C10F0120F08BF02240AD00324FD
:20660C00B269F16930683471891A0EF099F830680EF098F8347122E0307C800928BF20275A
:20662C000A201DE00421307C3171800828BF022717E00EF0FDF9317CB060480828BF012715
:20664C0011F0120F0BD00322B369F16930683271C91A0EF075F830680EF074F801E0022008
:20666C00307196F8240000284DD0012851D058E03079401F22D0401E17D0801E08D0C01E61
:20668C003AD10721307C3171C00828BF042735E0B0680DF0DDFD317CF060C80828BF0427B0
:2066AC00080928BF47F0080726E0B0680DF0D0FD317CF060480928BF14271DE0307C800906
:2066CC000ED2B0680DF0C4FD07213171317CF060C80828BF0427080928BF47F008070DE024
:2066EC000822B369316A30683271C91A0EF028F830680EF027F801E00720307196F8240061
:20670C0038B101280DD1009921F0C06141F0807104E0009921F0E06141F00071287802F08D
:20672C005DF82FB1706918B1024639464046904728780AF00DF9BDE8FC8170472DE9F04390
:20674C005A4C94F84201ADF1140D002840F093804B484C4E4FF00108027B3368416884F8DC
:20676C004281814684F84121C3F38147C4F86C11BFB9D9F81000A0B156F8085C0DF098FEFF
:20678C0064210246C5F306604143B1FBF2F23E49002304F194000AF082FF3C494FF000403C
:2067AC00086001A80DF01AFF00252F4604F10C00029501AB8DF80470354903953A460AF03F
:2067CC006EFF01A80DF00AFF04F150000822029501AB8DF804702F4903950AF060FF2E4A05
:2067EC0004F1D80032213B460BF0BAF92C4A2B4F04F1F4002C212B463D600BF0B1F92948F4
:20680C0099F80D3000783068C0F381501BB1032803D184F8398103281FD002281DD00128AF
:20682C001BD14FF08059D9F8A4011F4C406803214FF040521C230746009129462046B847D9
:20684C00D9F8A401406829464FF4007209230746CDF800802046B84706E0386840F04000D1
:20686C00386002200BF0ECFF56F8040CC00802D228460BF0E5FF05B00020BDE8F083C04632
:20688C00FC1B0000B44F0050F93E010000A10C406BC80000E10F0100A93001009022084065
:2068AC00B1E600000A34002000A00C40241C00202DE9FF4107467D68BE680C460DF058FF37
:2068CC002978012903D14FF0B5FF002091E0012129704FF0AFFF207868706078A8706068B9
:2068EC006860A068A860E068E86020692861207D2875607D6875A07DA875A069A861207F33
:20690C002877607F4FF0000843466877A07F2B63C5F82080A8771C466C626C63AC62AC63F9
